{
  "_format": "hh-sol-artifact-1",
  "contractName": "Auction",
  "sourceName": "contracts/Auction.sol",
  "abi": [
    {
      "inputs": [
        {
          "internalType": "uint256",
          "name": "_royaltyFee",
          "type": "uint256"
        }
      ],
      "stateMutability": "nonpayable",
      "type": "constructor"
    },
    {
      "anonymous": false,
      "inputs": [
        {
          "indexed": true,
          "internalType": "address",
          "name": "owner",
          "type": "address"
        },
        {
          "indexed": true,
          "internalType": "address",
          "name": "approved",
          "type": "address"
        },
        {
          "indexed": true,
          "internalType": "uint256",
          "name": "tokenId",
          "type": "uint256"
        }
      ],
      "name": "Approval",
      "type": "event"
    },
    {
      "anonymous": false,
      "inputs": [
        {
          "indexed": true,
          "internalType": "address",
          "name": "owner",
          "type": "address"
        },
        {
          "indexed": true,
          "internalType": "address",
          "name": "operator",
          "type": "address"
        },
        {
          "indexed": false,
          "internalType": "bool",
          "name": "approved",
          "type": "bool"
        }
      ],
      "name": "ApprovalForAll",
      "type": "event"
    },
    {
      "anonymous": false,
      "inputs": [
        {
          "indexed": true,
          "internalType": "uint256",
          "name": "tokenId",
          "type": "uint256"
        },
        {
          "indexed": false,
          "internalType": "address",
          "name": "seller",
          "type": "address"
        },
        {
          "indexed": false,
          "internalType": "address",
          "name": "owner",
          "type": "address"
        },
        {
          "indexed": false,
          "internalType": "uint256",
          "name": "price",
          "type": "uint256"
        },
        {
          "indexed": false,
          "internalType": "bool",
          "name": "sold",
          "type": "bool"
        }
      ],
      "name": "AuctionItemCreated",
      "type": "event"
    },
    {
      "anonymous": false,
      "inputs": [
        {
          "indexed": false,
          "internalType": "uint256",
          "name": "_fromTokenId",
          "type": "uint256"
        },
        {
          "indexed": false,
          "internalType": "uint256",
          "name": "_toTokenId",
          "type": "uint256"
        }
      ],
      "name": "BatchMetadataUpdate",
      "type": "event"
    },
    {
      "anonymous": false,
      "inputs": [
        {
          "indexed": false,
          "internalType": "uint256",
          "name": "_tokenId",
          "type": "uint256"
        }
      ],
      "name": "MetadataUpdate",
      "type": "event"
    },
    {
      "anonymous": false,
      "inputs": [
        {
          "indexed": true,
          "internalType": "address",
          "name": "from",
          "type": "address"
        },
        {
          "indexed": true,
          "internalType": "address",
          "name": "to",
          "type": "address"
        },
        {
          "indexed": true,
          "internalType": "uint256",
          "name": "tokenId",
          "type": "uint256"
        }
      ],
      "name": "Transfer",
      "type": "event"
    },
    {
      "inputs": [
        {
          "internalType": "address",
          "name": "to",
          "type": "address"
        },
        {
          "internalType": "uint256",
          "name": "tokenId",
          "type": "uint256"
        }
      ],
      "name": "approve",
      "outputs": [],
      "stateMutability": "nonpayable",
      "type": "function"
    },
    {
      "inputs": [
        {
          "internalType": "address",
          "name": "owner",
          "type": "address"
        }
      ],
      "name": "balanceOf",
      "outputs": [
        {
          "internalType": "uint256",
          "name": "",
          "type": "uint256"
        }
      ],
      "stateMutability": "view",
      "type": "function"
    },
    {
      "inputs": [
        {
          "internalType": "uint256",
          "name": "tokenId",
          "type": "uint256"
        }
      ],
      "name": "buyAuctionedItem",
      "outputs": [],
      "stateMutability": "payable",
      "type": "function"
    },
    {
      "inputs": [
        {
          "internalType": "uint256",
          "name": "tokenId",
          "type": "uint256"
        },
        {
          "internalType": "uint256",
          "name": "price",
          "type": "uint256"
        }
      ],
      "name": "changePrice",
      "outputs": [],
      "stateMutability": "nonpayable",
      "type": "function"
    },
    {
      "inputs": [
        {
          "internalType": "uint256",
          "name": "tokenId",
          "type": "uint256"
        },
        {
          "internalType": "uint256",
          "name": "bid",
          "type": "uint256"
        }
      ],
      "name": "claimPrize",
      "outputs": [],
      "stateMutability": "nonpayable",
      "type": "function"
    },
    {
      "inputs": [
        {
          "internalType": "string",
          "name": "name",
          "type": "string"
        },
        {
          "internalType": "string",
          "name": "description",
          "type": "string"
        },
        {
          "internalType": "string",
          "name": "image",
          "type": "string"
        },
        {
          "internalType": "string",
          "name": "tokenURI",
          "type": "string"
        },
        {
          "internalType": "uint256",
          "name": "price",
          "type": "uint256"
        }
      ],
      "name": "createAuction",
      "outputs": [],
      "stateMutability": "payable",
      "type": "function"
    },
    {
      "inputs": [],
      "name": "getAllAuctions",
      "outputs": [
        {
          "components": [
            {
              "internalType": "string",
              "name": "name",
              "type": "string"
            },
            {
              "internalType": "string",
              "name": "description",
              "type": "string"
            },
            {
              "internalType": "string",
              "name": "image",
              "type": "string"
            },
            {
              "internalType": "uint256",
              "name": "tokenId",
              "type": "uint256"
            },
            {
              "internalType": "address",
              "name": "seller",
              "type": "address"
            },
            {
              "internalType": "address",
              "name": "owner",
              "type": "address"
            },
            {
              "internalType": "address",
              "name": "winner",
              "type": "address"
            },
            {
              "internalType": "uint256",
              "name": "price",
              "type": "uint256"
            },
            {
              "internalType": "bool",
              "name": "sold",
              "type": "bool"
            },
            {
              "internalType": "bool",
              "name": "live",
              "type": "bool"
            },
            {
              "internalType": "bool",
              "name": "biddable",
              "type": "bool"
            },
            {
              "internalType": "uint256",
              "name": "bids",
              "type": "uint256"
            },
            {
              "internalType": "uint256",
              "name": "duration",
              "type": "uint256"
            }
          ],
          "internalType": "struct Auction.AuctionStruct[]",
          "name": "Auctions",
          "type": "tuple[]"
        }
      ],
      "stateMutability": "view",
      "type": "function"
    },
    {
      "inputs": [
        {
          "internalType": "uint256",
          "name": "tokenId",
          "type": "uint256"
        }
      ],
      "name": "getApproved",
      "outputs": [
        {
          "internalType": "address",
          "name": "",
          "type": "address"
        }
      ],
      "stateMutability": "view",
      "type": "function"
    },
    {
      "inputs": [
        {
          "internalType": "uint256",
          "name": "id",
          "type": "uint256"
        }
      ],
      "name": "getAuction",
      "outputs": [
        {
          "components": [
            {
              "internalType": "string",
              "name": "name",
              "type": "string"
            },
            {
              "internalType": "string",
              "name": "description",
              "type": "string"
            },
            {
              "internalType": "string",
              "name": "image",
              "type": "string"
            },
            {
              "internalType": "uint256",
              "name": "tokenId",
              "type": "uint256"
            },
            {
              "internalType": "address",
              "name": "seller",
              "type": "address"
            },
            {
              "internalType": "address",
              "name": "owner",
              "type": "address"
            },
            {
              "internalType": "address",
              "name": "winner",
              "type": "address"
            },
            {
              "internalType": "uint256",
              "name": "price",
              "type": "uint256"
            },
            {
              "internalType": "bool",
              "name": "sold",
              "type": "bool"
            },
            {
              "internalType": "bool",
              "name": "live",
              "type": "bool"
            },
            {
              "internalType": "bool",
              "name": "biddable",
              "type": "bool"
            },
            {
              "internalType": "uint256",
              "name": "bids",
              "type": "uint256"
            },
            {
              "internalType": "uint256",
              "name": "duration",
              "type": "uint256"
            }
          ],
          "internalType": "struct Auction.AuctionStruct",
          "name": "",
          "type": "tuple"
        }
      ],
      "stateMutability": "view",
      "type": "function"
    },
    {
      "inputs": [
        {
          "internalType": "uint256",
          "name": "tokenId",
          "type": "uint256"
        }
      ],
      "name": "getBidders",
      "outputs": [
        {
          "components": [
            {
              "internalType": "address",
              "name": "bidder",
              "type": "address"
            },
            {
              "internalType": "uint256",
              "name": "price",
              "type": "uint256"
            },
            {
              "internalType": "uint256",
              "name": "timestamp",
              "type": "uint256"
            },
            {
              "internalType": "bool",
              "name": "refunded",
              "type": "bool"
            },
            {
              "internalType": "bool",
              "name": "won",
              "type": "bool"
            }
          ],
          "internalType": "struct Auction.BidderStruct[]",
          "name": "",
          "type": "tuple[]"
        }
      ],
      "stateMutability": "view",
      "type": "function"
    },
    {
      "inputs": [],
      "name": "getListingPrice",
      "outputs": [
        {
          "internalType": "uint256",
          "name": "",
          "type": "uint256"
        }
      ],
      "stateMutability": "view",
      "type": "function"
    },
    {
      "inputs": [],
      "name": "getLiveAuctions",
      "outputs": [
        {
          "components": [
            {
              "internalType": "string",
              "name": "name",
              "type": "string"
            },
            {
              "internalType": "string",
              "name": "description",
              "type": "string"
            },
            {
              "internalType": "string",
              "name": "image",
              "type": "string"
            },
            {
              "internalType": "uint256",
              "name": "tokenId",
              "type": "uint256"
            },
            {
              "internalType": "address",
              "name": "seller",
              "type": "address"
            },
            {
              "internalType": "address",
              "name": "owner",
              "type": "address"
            },
            {
              "internalType": "address",
              "name": "winner",
              "type": "address"
            },
            {
              "internalType": "uint256",
              "name": "price",
              "type": "uint256"
            },
            {
              "internalType": "bool",
              "name": "sold",
              "type": "bool"
            },
            {
              "internalType": "bool",
              "name": "live",
              "type": "bool"
            },
            {
              "internalType": "bool",
              "name": "biddable",
              "type": "bool"
            },
            {
              "internalType": "uint256",
              "name": "bids",
              "type": "uint256"
            },
            {
              "internalType": "uint256",
              "name": "duration",
              "type": "uint256"
            }
          ],
          "internalType": "struct Auction.AuctionStruct[]",
          "name": "Auctions",
          "type": "tuple[]"
        }
      ],
      "stateMutability": "view",
      "type": "function"
    },
    {
      "inputs": [],
      "name": "getMyAuctions",
      "outputs": [
        {
          "components": [
            {
              "internalType": "string",
              "name": "name",
              "type": "string"
            },
            {
              "internalType": "string",
              "name": "description",
              "type": "string"
            },
            {
              "internalType": "string",
              "name": "image",
              "type": "string"
            },
            {
              "internalType": "uint256",
              "name": "tokenId",
              "type": "uint256"
            },
            {
              "internalType": "address",
              "name": "seller",
              "type": "address"
            },
            {
              "internalType": "address",
              "name": "owner",
              "type": "address"
            },
            {
              "internalType": "address",
              "name": "winner",
              "type": "address"
            },
            {
              "internalType": "uint256",
              "name": "price",
              "type": "uint256"
            },
            {
              "internalType": "bool",
              "name": "sold",
              "type": "bool"
            },
            {
              "internalType": "bool",
              "name": "live",
              "type": "bool"
            },
            {
              "internalType": "bool",
              "name": "biddable",
              "type": "bool"
            },
            {
              "internalType": "uint256",
              "name": "bids",
              "type": "uint256"
            },
            {
              "internalType": "uint256",
              "name": "duration",
              "type": "uint256"
            }
          ],
          "internalType": "struct Auction.AuctionStruct[]",
          "name": "Auctions",
          "type": "tuple[]"
        }
      ],
      "stateMutability": "view",
      "type": "function"
    },
    {
      "inputs": [],
      "name": "getSoldAuction",
      "outputs": [
        {
          "components": [
            {
              "internalType": "string",
              "name": "name",
              "type": "string"
            },
            {
              "internalType": "string",
              "name": "description",
              "type": "string"
            },
            {
              "internalType": "string",
              "name": "image",
              "type": "string"
            },
            {
              "internalType": "uint256",
              "name": "tokenId",
              "type": "uint256"
            },
            {
              "internalType": "address",
              "name": "seller",
              "type": "address"
            },
            {
              "internalType": "address",
              "name": "owner",
              "type": "address"
            },
            {
              "internalType": "address",
              "name": "winner",
              "type": "address"
            },
            {
              "internalType": "uint256",
              "name": "price",
              "type": "uint256"
            },
            {
              "internalType": "bool",
              "name": "sold",
              "type": "bool"
            },
            {
              "internalType": "bool",
              "name": "live",
              "type": "bool"
            },
            {
              "internalType": "bool",
              "name": "biddable",
              "type": "bool"
            },
            {
              "internalType": "uint256",
              "name": "bids",
              "type": "uint256"
            },
            {
              "internalType": "uint256",
              "name": "duration",
              "type": "uint256"
            }
          ],
          "internalType": "struct Auction.AuctionStruct[]",
          "name": "Auctions",
          "type": "tuple[]"
        }
      ],
      "stateMutability": "view",
      "type": "function"
    },
    {
      "inputs": [],
      "name": "getUnsoldAuction",
      "outputs": [
        {
          "components": [
            {
              "internalType": "string",
              "name": "name",
              "type": "string"
            },
            {
              "internalType": "string",
              "name": "description",
              "type": "string"
            },
            {
              "internalType": "string",
              "name": "image",
              "type": "string"
            },
            {
              "internalType": "uint256",
              "name": "tokenId",
              "type": "uint256"
            },
            {
              "internalType": "address",
              "name": "seller",
              "type": "address"
            },
            {
              "internalType": "address",
              "name": "owner",
              "type": "address"
            },
            {
              "internalType": "address",
              "name": "winner",
              "type": "address"
            },
            {
              "internalType": "uint256",
              "name": "price",
              "type": "uint256"
            },
            {
              "internalType": "bool",
              "name": "sold",
              "type": "bool"
            },
            {
              "internalType": "bool",
              "name": "live",
              "type": "bool"
            },
            {
              "internalType": "bool",
              "name": "biddable",
              "type": "bool"
            },
            {
              "internalType": "uint256",
              "name": "bids",
              "type": "uint256"
            },
            {
              "internalType": "uint256",
              "name": "duration",
              "type": "uint256"
            }
          ],
          "internalType": "struct Auction.AuctionStruct[]",
          "name": "Auctions",
          "type": "tuple[]"
        }
      ],
      "stateMutability": "view",
      "type": "function"
    },
    {
      "inputs": [
        {
          "internalType": "address",
          "name": "owner",
          "type": "address"
        },
        {
          "internalType": "address",
          "name": "operator",
          "type": "address"
        }
      ],
      "name": "isApprovedForAll",
      "outputs": [
        {
          "internalType": "bool",
          "name": "",
          "type": "bool"
        }
      ],
      "stateMutability": "view",
      "type": "function"
    },
    {
      "inputs": [],
      "name": "name",
      "outputs": [
        {
          "internalType": "string",
          "name": "",
          "type": "string"
        }
      ],
      "stateMutability": "view",
      "type": "function"
    },
    {
      "inputs": [
        {
          "internalType": "uint256",
          "name": "tokenId",
          "type": "uint256"
        },
        {
          "internalType": "bool",
          "name": "biddable",
          "type": "bool"
        },
        {
          "internalType": "uint256",
          "name": "sec",
          "type": "uint256"
        },
        {
          "internalType": "uint256",
          "name": "min",
          "type": "uint256"
        },
        {
          "internalType": "uint256",
          "name": "hour",
          "type": "uint256"
        },
        {
          "internalType": "uint256",
          "name": "day",
          "type": "uint256"
        }
      ],
      "name": "offerAuction",
      "outputs": [],
      "stateMutability": "nonpayable",
      "type": "function"
    },
    {
      "inputs": [
        {
          "internalType": "uint256",
          "name": "tokenId",
          "type": "uint256"
        }
      ],
      "name": "ownerOf",
      "outputs": [
        {
          "internalType": "address",
          "name": "",
          "type": "address"
        }
      ],
      "stateMutability": "view",
      "type": "function"
    },
    {
      "inputs": [
        {
          "internalType": "uint256",
          "name": "tokenId",
          "type": "uint256"
        }
      ],
      "name": "placeBid",
      "outputs": [],
      "stateMutability": "payable",
      "type": "function"
    },
    {
      "inputs": [
        {
          "internalType": "address",
          "name": "from",
          "type": "address"
        },
        {
          "internalType": "address",
          "name": "to",
          "type": "address"
        },
        {
          "internalType": "uint256",
          "name": "tokenId",
          "type": "uint256"
        }
      ],
      "name": "safeTransferFrom",
      "outputs": [],
      "stateMutability": "nonpayable",
      "type": "function"
    },
    {
      "inputs": [
        {
          "internalType": "address",
          "name": "from",
          "type": "address"
        },
        {
          "internalType": "address",
          "name": "to",
          "type": "address"
        },
        {
          "internalType": "uint256",
          "name": "tokenId",
          "type": "uint256"
        },
        {
          "internalType": "bytes",
          "name": "data",
          "type": "bytes"
        }
      ],
      "name": "safeTransferFrom",
      "outputs": [],
      "stateMutability": "nonpayable",
      "type": "function"
    },
    {
      "inputs": [
        {
          "internalType": "address",
          "name": "operator",
          "type": "address"
        },
        {
          "internalType": "bool",
          "name": "approved",
          "type": "bool"
        }
      ],
      "name": "setApprovalForAll",
      "outputs": [],
      "stateMutability": "nonpayable",
      "type": "function"
    },
    {
      "inputs": [
        {
          "internalType": "uint256",
          "name": "_price",
          "type": "uint256"
        }
      ],
      "name": "setListingPrice",
      "outputs": [],
      "stateMutability": "nonpayable",
      "type": "function"
    },
    {
      "inputs": [
        {
          "internalType": "bytes4",
          "name": "interfaceId",
          "type": "bytes4"
        }
      ],
      "name": "supportsInterface",
      "outputs": [
        {
          "internalType": "bool",
          "name": "",
          "type": "bool"
        }
      ],
      "stateMutability": "view",
      "type": "function"
    },
    {
      "inputs": [],
      "name": "symbol",
      "outputs": [
        {
          "internalType": "string",
          "name": "",
          "type": "string"
        }
      ],
      "stateMutability": "view",
      "type": "function"
    },
    {
      "inputs": [
        {
          "internalType": "uint256",
          "name": "tokenId",
          "type": "uint256"
        }
      ],
      "name": "tokenURI",
      "outputs": [
        {
          "internalType": "string",
          "name": "",
          "type": "string"
        }
      ],
      "stateMutability": "view",
      "type": "function"
    },
    {
      "inputs": [
        {
          "internalType": "address",
          "name": "from",
          "type": "address"
        },
        {
          "internalType": "address",
          "name": "to",
          "type": "address"
        },
        {
          "internalType": "uint256",
          "name": "tokenId",
          "type": "uint256"
        }
      ],
      "name": "transferFrom",
      "outputs": [],
      "stateMutability": "nonpayable",
      "type": "function"
    }
  ],
  "bytecode": "0x608060405266470de4df820000600a553480156200001c57600080fd5b50604051620043a9380380620043a98339810160408190526200003f91620000c6565b6040518060400160405280600f81526020016e44616c746f6e696320546f6b656e7360881b8152506040518060400160405280600381526020016211105560ea1b815250816000908162000094919062000185565b506001620000a3828262000185565b5050600160075550600980546001600160a01b03191633179055600b5562000251565b600060208284031215620000d957600080fd5b5051919050565b634e487b7160e01b600052604160045260246000fd5b600181811c908216806200010b57607f821691505b6020821081036200012c57634e487b7160e01b600052602260045260246000fd5b50919050565b601f8211156200018057600081815260208120601f850160051c810160208610156200015b5750805b601f850160051c820191505b818110156200017c5782815560010162000167565b5050505b505050565b81516001600160401b03811115620001a157620001a1620000e0565b620001b981620001b28454620000f6565b8462000132565b602080601f831160018114620001f15760008415620001d85750858301515b600019600386901b1c1916600185901b1785556200017c565b600085815260208120601f198616915b82811015620002225788860151825594840194600190910190840162000201565b5085821015620002415787850151600019600388901b60f8161c191681555b5050505050600190811b01905550565b61414880620002616000396000f3fe6080604052600436106101775760003560e01c80637c726b69116100cc578063b88d4fde1161007a578063b88d4fde14610438578063bf65a33314610458578063c87b56dd1461046d578063cbd2bdfd1461048d578063db0bd5c9146104a2578063e985e9c5146104b7578063f5a06acf146104d757600080fd5b80637c726b691461037b57806395d89b411461039b5780639979ef45146103b05780639e78efd6146103c3578063a22cb465146103d8578063a923f18c146103f8578063b3de019c1461041857600080fd5b806333748dcb1161012957806333748dcb1461028e57806342842e0e146102a15780634fa7b507146102c15780636352211e146102ee57806370a082311461030e57806378bd79351461032e5780637b1541401461035b57600080fd5b806301ffc9a71461017c57806306fdde03146101b1578063081812fc146101d3578063095ea7b31461020b57806312e855851461022d5780631d8df68f1461024c57806323b872dd1461026e575b600080fd5b34801561018857600080fd5b5061019c6101973660046136c4565b6104ea565b60405190151581526020015b60405180910390f35b3480156101bd57600080fd5b506101c6610515565b6040516101a89190613731565b3480156101df57600080fd5b506101f36101ee366004613744565b6105a7565b6040516001600160a01b0390911681526020016101a8565b34801561021757600080fd5b5061022b610226366004613779565b6105ce565b005b34801561023957600080fd5b50600a545b6040519081526020016101a8565b34801561025857600080fd5b506102616106e8565b6040516101a891906138a3565b34801561027a57600080fd5b5061022b610289366004613905565b610a85565b61022b61029c3660046139ec565b610ab6565b3480156102ad57600080fd5b5061022b6102bc366004613905565b610dc1565b3480156102cd57600080fd5b506102e16102dc366004613744565b610ddc565b6040516101a89190613aa0565b3480156102fa57600080fd5b506101f3610309366004613744565b610e8e565b34801561031a57600080fd5b5061023e610329366004613b1b565b610ec3565b34801561033a57600080fd5b5061034e610349366004613744565b610f49565b6040516101a89190613b36565b34801561036757600080fd5b5061022b610376366004613b49565b611204565b34801561038757600080fd5b5061022b610396366004613744565b611433565b3480156103a757600080fd5b506101c6611462565b61022b6103be366004613744565b611471565b3480156103cf57600080fd5b5061026161164f565b3480156103e457600080fd5b5061022b6103f3366004613b7b565b6119e3565b34801561040457600080fd5b5061022b610413366004613bae565b6119f2565b34801561042457600080fd5b5061022b610433366004613b49565b611b68565b34801561044457600080fd5b5061022b610453366004613bfc565b611c42565b34801561046457600080fd5b50610261611c7a565b34801561047957600080fd5b506101c6610488366004613744565b61201e565b34801561049957600080fd5b5061026161212e565b3480156104ae57600080fd5b50610261612437565b3480156104c357600080fd5b5061019c6104d2366004613c77565b6127e1565b61022b6104e5366004613744565b61280f565b60006001600160e01b03198216632483248360e11b148061050f575061050f82612a2a565b92915050565b60606000805461052490613ca1565b80601f016020809104026020016040519081016040528092919081815260200182805461055090613ca1565b801561059d5780601f106105725761010080835404028352916020019161059d565b820191906000526020600020905b81548152906001019060200180831161058057829003601f168201915b5050505050905090565b60006105b282612a7a565b506000908152600460205260409020546001600160a01b031690565b60006105d982610e8e565b9050806001600160a01b0316836001600160a01b03160361064b5760405162461bcd60e51b815260206004820152602160248201527f4552433732313a20617070726f76616c20746f2063757272656e74206f776e656044820152603960f91b60648201526084015b60405180910390fd5b336001600160a01b0382161480610667575061066781336127e1565b6106d95760405162461bcd60e51b815260206004820152603d60248201527f4552433732313a20617070726f76652063616c6c6572206973206e6f7420746f60448201527f6b656e206f776e6572206f7220617070726f76656420666f7220616c6c0000006064820152608401610642565b6106e38383612a9f565b505050565b606060006106f560085490565b90506000805b8281101561074e57600c6000610712836001613cf1565b815260208101919091526040016000206008015460ff161561073c578161073881613d04565b9250505b8061074681613d04565b9150506106fb565b50806001600160401b0381111561076757610767613941565b6040519080825280602002602001820160405280156107a057816020015b61078d6135cb565b8152602001906001900390816107855790505b5092506000805b83811015610a7e57600c60006107be836001613cf1565b815260208101919091526040016000206008015460ff1615610a6c57600c60006107e9836001613cf1565b8152602001908152602001600020604051806101a001604052908160008201805461081390613ca1565b80601f016020809104026020016040519081016040528092919081815260200182805461083f90613ca1565b801561088c5780601f106108615761010080835404028352916020019161088c565b820191906000526020600020905b81548152906001019060200180831161086f57829003601f168201915b505050505081526020016001820180546108a590613ca1565b80601f01602080910402602001604051908101604052809291908181526020018280546108d190613ca1565b801561091e5780601f106108f35761010080835404028352916020019161091e565b820191906000526020600020905b81548152906001019060200180831161090157829003601f168201915b5050505050815260200160028201805461093790613ca1565b80601f016020809104026020016040519081016040528092919081815260200182805461096390613ca1565b80156109b05780601f10610985576101008083540402835291602001916109b0565b820191906000526020600020905b81548152906001019060200180831161099357829003601f168201915b50505091835250506003820154602082015260048201546001600160a01b0390811660408301526005830154811660608301526006830154166080820152600782015460a0820152600882015460ff808216151560c08401526101008083048216151560e085015262010000909204161515908201526009820154610120820152600a90910154610140909101528551869084908110610a5257610a52613d1d565b60200260200101819052508180610a6890613d04565b9250505b80610a7681613d04565b9150506107a7565b5050505090565b610a8f3382612b0d565b610aab5760405162461bcd60e51b815260040161064290613d33565b6106e3838383612b6b565b610abe612ccf565b60008111610b215760405162461bcd60e51b815260206004820152602a60248201527f53616c6573207072696365206d7573742062652067726561746572207468616e60448201526910181032ba3432b9399760b11b6064820152608401610642565b600a54341015610b825760405162461bcd60e51b815260206004820152602660248201527f5072696365206d75737420626520757020746f20746865206c697374696e6720604482015265383934b1b29760d11b6064820152608401610642565b610b8b82612d28565b610bce5760405162461bcd60e51b815260206004820152601460248201527321b7bab632103737ba1036b4b73a103a37b5b2b760611b6044820152606401610642565b6000610bd960085490565b9050610be36135cb565b60608101829052868152602081018690526040810185905260e08101839052610c0f6000808080612d62565b610180820152336080820181905260a08201526000828152600c6020526040902081518291908190610c419082613dce565b5060208201516001820190610c569082613dce565b5060408201516002820190610c6b9082613dce565b506060820151600382015560808201516004820180546001600160a01b03199081166001600160a01b039384161790915560a0840151600584018054831691841691909117905560c084015160068401805490921690831617905560e083015160078301556101008084015160088401805461012087015161014088015161ffff1990921693151561ff001916939093179215159093029190911762ff00001916620100009215159290920291909117905561016083015160098084019190915561018090930151600a928301556000858152600d60205260409020805460ff1916600117905591549054610d64929190911690612dc4565b604080513381526000602082018190528183018690526060820152905183917fa693a8f68fe4df789541ddd1b84d32ccaea90adddcc88406b4bbbf6466328d3c919081900360800190a25050610dba6001600755565b5050505050565b6106e383838360405180602001604052806000815250611c42565b6060600f6000838152602001908152602001600020805480602002602001604051908101604052809291908181526020016000905b82821015610e835760008481526020908190206040805160a0810182526004860290920180546001600160a01b03168352600180820154848601526002820154928401929092526003015460ff8082161515606085015261010090910416151560808301529083529092019101610e11565b505050509050919050565b6000818152600260205260408120546001600160a01b03168061050f5760405162461bcd60e51b815260040161064290613e8d565b60006001600160a01b038216610f2d5760405162461bcd60e51b815260206004820152602960248201527f4552433732313a2061646472657373207a65726f206973206e6f7420612076616044820152683634b21037bbb732b960b91b6064820152608401610642565b506001600160a01b031660009081526003602052604090205490565b610f516135cb565b6000828152600d602052604090205460ff16610faa5760405162461bcd60e51b8152602060048201526018602482015277105d58dd1a5bdb995908125d195b481b9bdd08199bdd5b9960421b6044820152606401610642565b6000828152600c60205260409081902081516101a08101909252805482908290610fd390613ca1565b80601f0160208091040260200160405190810160405280929190818152602001828054610fff90613ca1565b801561104c5780601f106110215761010080835404028352916020019161104c565b820191906000526020600020905b81548152906001019060200180831161102f57829003601f168201915b5050505050815260200160018201805461106590613ca1565b80601f016020809104026020016040519081016040528092919081815260200182805461109190613ca1565b80156110de5780601f106110b3576101008083540402835291602001916110de565b820191906000526020600020905b8154815290600101906020018083116110c157829003601f168201915b505050505081526020016002820180546110f790613ca1565b80601f016020809104026020016040519081016040528092919081815260200182805461112390613ca1565b80156111705780601f1061114557610100808354040283529160200191611170565b820191906000526020600020905b81548152906001019060200180831161115357829003601f168201915b50505091835250506003820154602082015260048201546001600160a01b0390811660408301526005830154811660608301526006830154166080820152600782015460a0820152600882015460ff808216151560c08401526101008083048216151560e085015262010000909204161515908201526009820154610120820152600a909101546101409091015292915050565b6000828152600c60205260408120600a01549061122390808080612d62565b116112405760405162461bcd60e51b815260040161064290613ebf565b6000828152600c60205260409020600601546001600160a01b031633146112a25760405162461bcd60e51b81526020600482015260166024820152752cb7ba9030b932903737ba103a3432903bb4b73732b960511b6044820152606401610642565b6000828152600f60205260409020805460019190839081106112c6576112c6613d1d565b60009182526020808320600492830201600301805461ff0019166101009515159590950294909417909355848252600c909252604081206007810154928101546006820180546001600160a01b031916905560088201805461ffff1916600117905560099091018290556001600160a01b03169061134690808080612d62565b6000858152600c60205260408120600a0191909155600b5460649061136b9085613eeb565b6113759190613f02565b6000868152600c60205260409020600501549091506113a6906001600160a01b03166113a18386613f24565b612dc4565b6113b08282612dc4565b6040516323b872dd60e01b815230906323b872dd906113d790839033908a90600401613f37565b600060405180830381600087803b1580156113f157600080fd5b505af1158015611405573d6000803e3d6000fd5b5050506000868152600c6020526040902060050180546001600160a01b0319163317905550610dba85612e2b565b6009546001600160a01b0316331461145d5760405162461bcd60e51b815260040161064290613f5b565b600a55565b60606001805461052490613ca1565b6000818152600c60205260409020600701543410156114a25760405162461bcd60e51b815260040161064290613f88565b6114b0600080600080612d62565b6000828152600c60205260409020600a0154116114df5760405162461bcd60e51b815260040161064290613fb5565b6000818152600c602052604090206008015462010000900460ff166115415760405162461bcd60e51b815260206004820152601860248201527741756374696f6e206f6e6c7920666f722062696464696e6760401b6044820152606401610642565b6040805160a081018252600091810182905260608101829052608081018290523381523460208201529061157790808080612d62565b60408083019182526000848152600f6020908152828220805460018181018355918452828420875160049092020180546001600160a01b039092166001600160a01b0319909216919091178155828701519181019190915593516002850155606085015160039094018054608087015115156101000261ff00199615159690961661ffff199091161794909417909355848152600c909252812060090180549161162083613d04565b9091555050506000908152600c6020526040902034600782015560060180546001600160a01b03191633179055565b6060600061165c60085490565b90506000805b828110156116b457600c6000611679836001613cf1565b815260208101919091526040016000206008015460ff166116a2578161169e81613d04565b9250505b806116ac81613d04565b915050611662565b50806001600160401b038111156116cd576116cd613941565b60405190808252806020026020018201604052801561170657816020015b6116f36135cb565b8152602001906001900390816116eb5790505b5092506000805b83811015610a7e57600c6000611724836001613cf1565b815260208101919091526040016000206008015460ff166119d157600c600061174e836001613cf1565b8152602001908152602001600020604051806101a001604052908160008201805461177890613ca1565b80601f01602080910402602001604051908101604052809291908181526020018280546117a490613ca1565b80156117f15780601f106117c6576101008083540402835291602001916117f1565b820191906000526020600020905b8154815290600101906020018083116117d457829003601f168201915b5050505050815260200160018201805461180a90613ca1565b80601f016020809104026020016040519081016040528092919081815260200182805461183690613ca1565b80156118835780601f1061185857610100808354040283529160200191611883565b820191906000526020600020905b81548152906001019060200180831161186657829003601f168201915b5050505050815260200160028201805461189c90613ca1565b80601f01602080910402602001604051908101604052809291908181526020018280546118c890613ca1565b80156119155780601f106118ea57610100808354040283529160200191611915565b820191906000526020600020905b8154815290600101906020018083116118f857829003601f168201915b50505091835250506003820154602082015260048201546001600160a01b0390811660408301526005830154811660608301526006830154166080820152600782015460a0820152600882015460ff808216151560c08401526101008083048216151560e085015262010000909204161515908201526009820154610120820152600a909101546101409091015285518690849081106119b7576119b7613d1d565b602002602001018190525081806119cd90613d04565b9250505b806119db81613d04565b91505061170d565b6119ee33838361300c565b5050565b6000868152600c60205260409020600501546001600160a01b03163314611a2b5760405162461bcd60e51b815260040161064290613f5b565b6000868152600c602052604090206009015415611a8a5760405162461bcd60e51b815260206004820152601f60248201527f57696e6e65722073686f756c6420636c61696d207072697a65206669727374006044820152606401610642565b6000868152600c6020526040902060080154610100900460ff16611b0d57611ab33060016119e3565b6040516323b872dd60e01b815230906323b872dd90611ada90339084908b90600401613f37565b600060405180830381600087803b158015611af457600080fd5b505af1158015611b08573d6000803e3d6000fd5b505050505b6000868152600c6020526040812060098101919091556008018054861515620100000262ffffff1990911617610100179055611b4b84848484612d62565b6000968752600c6020526040909620600a01959095555050505050565b6000828152600c60205260409020600501546001600160a01b03163314611ba15760405162461bcd60e51b815260040161064290613f5b565b6000828152600c60205260408120600a015490611bc090808080612d62565b11611bdd5760405162461bcd60e51b815260040161064290613ebf565b60008111611c2d5760405162461bcd60e51b815260206004820152601f60248201527f5072696365206d7573742062652067726561746572207468616e207a65726f006044820152606401610642565b6000918252600c602052604090912060070155565b611c4c3383612b0d565b611c685760405162461bcd60e51b815260040161064290613d33565b611c74848484846130d6565b50505050565b60606000611c8760085490565b90506000805b82811015611ce75733600c6000611ca5846001613cf1565b81526020810191909152604001600020600501546001600160a01b031603611cd55781611cd181613d04565b9250505b80611cdf81613d04565b915050611c8d565b50806001600160401b03811115611d0057611d00613941565b604051908082528060200260200182016040528015611d3957816020015b611d266135cb565b815260200190600190039081611d1e5790505b5092506000805b83811015610a7e5733600c6000611d58846001613cf1565b81526020810191909152604001600020600501546001600160a01b03160361200c57600c6000611d89836001613cf1565b8152602001908152602001600020604051806101a0016040529081600082018054611db390613ca1565b80601f0160208091040260200160405190810160405280929190818152602001828054611ddf90613ca1565b8015611e2c5780601f10611e0157610100808354040283529160200191611e2c565b820191906000526020600020905b815481529060010190602001808311611e0f57829003601f168201915b50505050508152602001600182018054611e4590613ca1565b80601f0160208091040260200160405190810160405280929190818152602001828054611e7190613ca1565b8015611ebe5780601f10611e9357610100808354040283529160200191611ebe565b820191906000526020600020905b815481529060010190602001808311611ea157829003601f168201915b50505050508152602001600282018054611ed790613ca1565b80601f0160208091040260200160405190810160405280929190818152602001828054611f0390613ca1565b8015611f505780601f10611f2557610100808354040283529160200191611f50565b820191906000526020600020905b815481529060010190602001808311611f3357829003601f168201915b50505091835250506003820154602082015260048201546001600160a01b0390811660408301526005830154811660608301526006830154166080820152600782015460a0820152600882015460ff808216151560c08401526101008083048216151560e085015262010000909204161515908201526009820154610120820152600a90910154610140909101528551869084908110611ff257611ff2613d1d565b6020026020010181905250818061200890613d04565b9250505b8061201681613d04565b915050611d40565b606061202982612a7a565b6000828152600660205260408120805461204290613ca1565b80601f016020809104026020016040519081016040528092919081815260200182805461206e90613ca1565b80156120bb5780601f10612090576101008083540402835291602001916120bb565b820191906000526020600020905b81548152906001019060200180831161209e57829003601f168201915b5050505050905060006120d960408051602081019091526000815290565b905080516000036120eb575092915050565b81511561211d578082604051602001612105929190613fe4565b60405160208183030381529060405292505050919050565b61212684613109565b949350505050565b6060600061213b60085490565b9050806001600160401b0381111561215557612155613941565b60405190808252806020026020018201604052801561218e57816020015b61217b6135cb565b8152602001906001900390816121735790505b50915060005b8181101561243257600c60006121ab836001613cf1565b8152602001908152602001600020604051806101a00160405290816000820180546121d590613ca1565b80601f016020809104026020016040519081016040528092919081815260200182805461220190613ca1565b801561224e5780601f106122235761010080835404028352916020019161224e565b820191906000526020600020905b81548152906001019060200180831161223157829003601f168201915b5050505050815260200160018201805461226790613ca1565b80601f016020809104026020016040519081016040528092919081815260200182805461229390613ca1565b80156122e05780601f106122b5576101008083540402835291602001916122e0565b820191906000526020600020905b8154815290600101906020018083116122c357829003601f168201915b505050505081526020016002820180546122f990613ca1565b80601f016020809104026020016040519081016040528092919081815260200182805461232590613ca1565b80156123725780601f1061234757610100808354040283529160200191612372565b820191906000526020600020905b81548152906001019060200180831161235557829003601f168201915b50505091835250506003820154602082015260048201546001600160a01b0390811660408301526005830154811660608301526006830154166080820152600782015460a0820152600882015460ff808216151560c08401526101008083048216151560e085015262010000909204161515908201526009820154610120820152600a9091015461014090910152835184908390811061241457612414613d1d565b6020026020010181905250808061242a90613d04565b915050612194565b505090565b6060600061244460085490565b90506000805b828110156124a757612460600080600080612d62565b600c600061246f846001613cf1565b8152602001908152602001600020600a01541115612495578161249181613d04565b9250505b8061249f81613d04565b91505061244a565b50806001600160401b038111156124c0576124c0613941565b6040519080825280602002602001820160405280156124f957816020015b6124e66135cb565b8152602001906001900390816124de5790505b5092506000805b83811015610a7e57612516600080600080612d62565b600c6000612525846001613cf1565b8152602001908152602001600020600a015411156127cf57600c600061254c836001613cf1565b8152602001908152602001600020604051806101a001604052908160008201805461257690613ca1565b80601f01602080910402602001604051908101604052809291908181526020018280546125a290613ca1565b80156125ef5780601f106125c4576101008083540402835291602001916125ef565b820191906000526020600020905b8154815290600101906020018083116125d257829003601f168201915b5050505050815260200160018201805461260890613ca1565b80601f016020809104026020016040519081016040528092919081815260200182805461263490613ca1565b80156126815780601f1061265657610100808354040283529160200191612681565b820191906000526020600020905b81548152906001019060200180831161266457829003601f168201915b5050505050815260200160028201805461269a90613ca1565b80601f01602080910402602001604051908101604052809291908181526020018280546126c690613ca1565b80156127135780601f106126e857610100808354040283529160200191612713565b820191906000526020600020905b8154815290600101906020018083116126f657829003601f168201915b50505091835250506003820154602082015260048201546001600160a01b0390811660408301526005830154811660608301526006830154166080820152600782015460a0820152600882015460ff808216151560c08401526101008083048216151560e085015262010000909204161515908201526009820154610120820152600a909101546101409091015285518690849081106127b5576127b5613d1d565b602002602001018190525081806127cb90613d04565b9250505b806127d981613d04565b915050612500565b6001600160a01b03918216600090815260056020908152604080832093909416825291909152205460ff1690565b612817612ccf565b6000818152600c60205260409020600701543410156128485760405162461bcd60e51b815260040161064290613f88565b612856600080600080612d62565b6000828152600c60205260409020600a0154116128855760405162461bcd60e51b815260040161064290613fb5565b6000818152600c602052604090206008015462010000900460ff16156128e95760405162461bcd60e51b815260206004820152601960248201527841756374696f6e206f6e6c7920666f7220707572636861736560381b6044820152606401610642565b6000818152600c60205260408120600481015460088201805461ffff1916600117905560099091018290556001600160a01b03169061292a90808080612d62565b6000838152600c60205260408120600a0191909155600b5460649061294f9034613eeb565b6129599190613f02565b6000848152600c6020526040902060050154909150612985906001600160a01b03166113a18334613f24565b61298f8282612dc4565b6000838152600c6020526040908190206003015490516323b872dd60e01b815230916323b872dd916129c8918491339190600401613f37565b600060405180830381600087803b1580156129e257600080fd5b505af11580156129f6573d6000803e3d6000fd5b5050506000848152600c6020526040902060050180546001600160a01b0319163317905550612a279150612e249050565b50565b60006001600160e01b031982166380ac58cd60e01b1480612a5b57506001600160e01b03198216635b5e139f60e01b145b8061050f57506301ffc9a760e01b6001600160e01b031983161461050f565b612a838161317d565b612a275760405162461bcd60e51b815260040161064290613e8d565b600081815260046020526040902080546001600160a01b0319166001600160a01b0384169081179091558190612ad482610e8e565b6001600160a01b03167f8c5be1e5ebec7d5bd14f71427d1e84f3dd0314c0f7b2291e5b200ac8c7c3b92560405160405180910390a45050565b600080612b1983610e8e565b9050806001600160a01b0316846001600160a01b03161480612b405750612b4081856127e1565b806121265750836001600160a01b0316612b59846105a7565b6001600160a01b031614949350505050565b826001600160a01b0316612b7e82610e8e565b6001600160a01b031614612ba45760405162461bcd60e51b815260040161064290614013565b6001600160a01b038216612c065760405162461bcd60e51b8152602060048201526024808201527f4552433732313a207472616e7366657220746f20746865207a65726f206164646044820152637265737360e01b6064820152608401610642565b826001600160a01b0316612c1982610e8e565b6001600160a01b031614612c3f5760405162461bcd60e51b815260040161064290614013565b600081815260046020908152604080832080546001600160a01b03199081169091556001600160a01b0387811680865260038552838620805460001901905590871680865283862080546001019055868652600290945282852080549092168417909155905184937fddf252ad1be2c89b69c2b068fc378daa952ba7f163c4a11628f55a4df523b3ef91a4505050565b600260075403612d215760405162461bcd60e51b815260206004820152601f60248201527f5265656e7472616e637947756172643a207265656e7472616e742063616c6c006044820152606401610642565b6002600755565b6000612d38600880546001019055565b6000612d4360085490565b9050612d4f338261319a565b612d5981846132a7565b50600192915050565b6000612d718262015180613eeb565b612d7d84610e10613eeb565b612d8886603c613eeb565b612d93886001613eeb565b612d9d9042613cf1565b612da79190613cf1565b612db19190613cf1565b612dbb9190613cf1565b95945050505050565b6000826001600160a01b03168260405160006040518083038185875af1925050503d8060008114612e11576040519150601f19603f3d011682016040523d82523d6000602084013e612e16565b606091505b50509050806106e357600080fd5b6001600755565b60005b6000828152600f6020526040902054811015612ff4576000828152600f60205260409020805433919083908110612e6757612e67613d1d565b60009182526020909120600490910201546001600160a01b031614612f53576000828152600f6020526040902080546001919083908110612eaa57612eaa613d1d565b906000526020600020906004020160030160006101000a81548160ff021916908315150217905550612f4e600f60008481526020019081526020016000208281548110612ef957612ef9613d1d565b60009182526020808320600490920290910154858352600f909152604090912080546001600160a01b039092169184908110612f3757612f37613d1d565b906000526020600020906004020160010154612dc4565b612fa0565b6000828152600f6020526040902080546001919083908110612f7757612f77613d1d565b906000526020600020906004020160030160016101000a81548160ff0219169083151502179055505b612fae600080600080612d62565b6000838152600f60205260409020805483908110612fce57612fce613d1d565b600091825260209091206002600490920201015580612fec81613d04565b915050612e2e565b506000818152600f60205260408120612a2791613654565b816001600160a01b0316836001600160a01b0316036130695760405162461bcd60e51b815260206004820152601960248201527822a9219b99189d1030b8383937bb32903a379031b0b63632b960391b6044820152606401610642565b6001600160a01b03838116600081815260056020908152604080832094871680845294825291829020805460ff191686151590811790915591519182527f17307eab39ab6107e8899845ad3d59bd9653f200f220920489ca2b5937696c31910160405180910390a3505050565b6130e1848484612b6b565b6130ed84848484613363565b611c745760405162461bcd60e51b815260040161064290614058565b606061311482612a7a565b600061312b60408051602081019091526000815290565b9050600081511161314b5760405180602001604052806000815250613176565b8061315584613461565b604051602001613166929190613fe4565b6040516020818303038152906040525b9392505050565b6000908152600260205260409020546001600160a01b0316151590565b6001600160a01b0382166131f05760405162461bcd60e51b815260206004820181905260248201527f4552433732313a206d696e7420746f20746865207a65726f20616464726573736044820152606401610642565b6131f98161317d565b156132165760405162461bcd60e51b8152600401610642906140aa565b61321f8161317d565b1561323c5760405162461bcd60e51b8152600401610642906140aa565b6001600160a01b038216600081815260036020908152604080832080546001019055848352600290915280822080546001600160a01b0319168417905551839291907fddf252ad1be2c89b69c2b068fc378daa952ba7f163c4a11628f55a4df523b3ef908290a45050565b6132b08261317d565b6133135760405162461bcd60e51b815260206004820152602e60248201527f45524337323155524953746f726167653a2055524920736574206f66206e6f6e60448201526d32bc34b9ba32b73a103a37b5b2b760911b6064820152608401610642565b600082815260066020526040902061332b8282613dce565b506040518281527ff8e1a15aba9398e019f0b49df1a4fde98ee17ae345cb5f6b5e2c27f5033e8ce79060200160405180910390a15050565b60006001600160a01b0384163b1561345957604051630a85bd0160e11b81526001600160a01b0385169063150b7a02906133a79033908990889088906004016140e1565b6020604051808303816000875af19250505080156133e2575060408051601f3d908101601f191682019092526133df9181019061411e565b60015b61343f573d808015613410576040519150601f19603f3d011682016040523d82523d6000602084013e613415565b606091505b5080516000036134375760405162461bcd60e51b815260040161064290614058565b805181602001fd5b6001600160e01b031916630a85bd0160e11b149050612126565b506001612126565b6060600061346e836134f3565b60010190506000816001600160401b0381111561348d5761348d613941565b6040519080825280601f01601f1916602001820160405280156134b7576020820181803683370190505b5090508181016020015b600019016f181899199a1a9b1b9c1cb0b131b232b360811b600a86061a8153600a85049450846134c157509392505050565b60008072184f03e93ff9f4daa797ed6e38ed64bf6a1f0160401b83106135325772184f03e93ff9f4daa797ed6e38ed64bf6a1f0160401b830492506040015b6d04ee2d6d415b85acef8100000000831061355e576d04ee2d6d415b85acef8100000000830492506020015b662386f26fc10000831061357c57662386f26fc10000830492506010015b6305f5e1008310613594576305f5e100830492506008015b61271083106135a857612710830492506004015b606483106135ba576064830492506002015b600a831061050f5760010192915050565b604051806101a001604052806060815260200160608152602001606081526020016000815260200160006001600160a01b0316815260200160006001600160a01b0316815260200160006001600160a01b031681526020016000815260200160001515815260200160001515815260200160001515815260200160008152602001600081525090565b5080546000825560040290600052602060002090810190612a2791905b808211156136aa5780546001600160a01b0319168155600060018201819055600282015560038101805461ffff19169055600401613671565b5090565b6001600160e01b031981168114612a2757600080fd5b6000602082840312156136d657600080fd5b8135613176816136ae565b60005b838110156136fc5781810151838201526020016136e4565b50506000910152565b6000815180845261371d8160208601602086016136e1565b601f01601f19169290920160200192915050565b6020815260006131766020830184613705565b60006020828403121561375657600080fd5b5035919050565b80356001600160a01b038116811461377457600080fd5b919050565b6000806040838503121561378c57600080fd5b6137958361375d565b946020939093013593505050565b60006101a082518185526137b982860182613705565b915050602083015184820360208601526137d38282613705565b915050604083015184820360408601526137ed8282613705565b91505060608301516060850152608083015161381460808601826001600160a01b03169052565b5060a083015161382f60a08601826001600160a01b03169052565b5060c083015161384a60c08601826001600160a01b03169052565b5060e083015160e0850152610100808401516138698287018215159052565b5050610120838101511515908501526101408084015115159085015261016080840151908501526101809283015192909301919091525090565b6000602080830181845280855180835260408601915060408160051b870101925083870160005b828110156138f857603f198886030184526138e68583516137a3565b945092850192908501906001016138ca565b5092979650505050505050565b60008060006060848603121561391a57600080fd5b6139238461375d565b92506139316020850161375d565b9150604084013590509250925092565b634e487b7160e01b600052604160045260246000fd5b60006001600160401b038084111561397157613971613941565b604051601f8501601f19908116603f0116810190828211818310171561399957613999613941565b816040528093508581528686860111156139b257600080fd5b858560208301376000602087830101525050509392505050565b600082601f8301126139dd57600080fd5b61317683833560208501613957565b600080600080600060a08688031215613a0457600080fd5b85356001600160401b0380821115613a1b57600080fd5b613a2789838a016139cc565b96506020880135915080821115613a3d57600080fd5b613a4989838a016139cc565b95506040880135915080821115613a5f57600080fd5b613a6b89838a016139cc565b94506060880135915080821115613a8157600080fd5b50613a8e888289016139cc565b95989497509295608001359392505050565b602080825282518282018190526000919060409081850190868401855b82811015613b0e57815180516001600160a01b031685528681015187860152858101518686015260608082015115159086015260809081015115159085015260a09093019290850190600101613abd565b5091979650505050505050565b600060208284031215613b2d57600080fd5b6131768261375d565b60208152600061317660208301846137a3565b60008060408385031215613b5c57600080fd5b50508035926020909101359150565b8035801515811461377457600080fd5b60008060408385031215613b8e57600080fd5b613b978361375d565b9150613ba560208401613b6b565b90509250929050565b60008060008060008060c08789031215613bc757600080fd5b86359550613bd760208801613b6b565b95989597505050506040840135936060810135936080820135935060a0909101359150565b60008060008060808587031215613c1257600080fd5b613c1b8561375d565b9350613c296020860161375d565b92506040850135915060608501356001600160401b03811115613c4b57600080fd5b8501601f81018713613c5c57600080fd5b613c6b87823560208401613957565b91505092959194509250565b60008060408385031215613c8a57600080fd5b613c938361375d565b9150613ba56020840161375d565b600181811c90821680613cb557607f821691505b602082108103613cd557634e487b7160e01b600052602260045260246000fd5b50919050565b634e487b7160e01b600052601160045260246000fd5b8082018082111561050f5761050f613cdb565b600060018201613d1657613d16613cdb565b5060010190565b634e487b7160e01b600052603260045260246000fd5b6020808252602d908201527f4552433732313a2063616c6c6572206973206e6f7420746f6b656e206f776e6560408201526c1c881bdc88185c1c1c9bdd9959609a1b606082015260800190565b601f8211156106e357600081815260208120601f850160051c81016020861015613da75750805b601f850160051c820191505b81811015613dc657828155600101613db3565b505050505050565b81516001600160401b03811115613de757613de7613941565b613dfb81613df58454613ca1565b84613d80565b602080601f831160018114613e305760008415613e185750858301515b600019600386901b1c1916600185901b178555613dc6565b600085815260208120601f198616915b82811015613e5f57888601518255948401946001909101908401613e40565b5085821015613e7d5787850151600019600388901b60f8161c191681555b5050505050600190811b01905550565b602080825260189082015277115490cdcc8c4e881a5b9d985b1a59081d1bdad95b88125160421b604082015260600190565b60208082526012908201527141756374696f6e207374696c6c204c69766560701b604082015260600190565b808202811582820484141761050f5761050f613cdb565b600082613f1f57634e487b7160e01b600052601260045260246000fd5b500490565b8181038181111561050f5761050f613cdb565b6001600160a01b039384168152919092166020820152604081019190915260600190565b602080825260139082015272556e617574686f72697a656420656e7469747960681b604082015260600190565b602080825260139082015272125b9cdd59999a58da595b9d08105b5bdd5b9d606a1b604082015260600190565b60208082526015908201527441756374696f6e206e6f7420617661696c61626c6560581b604082015260600190565b60008351613ff68184602088016136e1565b83519083019061400a8183602088016136e1565b01949350505050565b60208082526025908201527f4552433732313a207472616e736665722066726f6d20696e636f72726563742060408201526437bbb732b960d91b606082015260800190565b60208082526032908201527f4552433732313a207472616e7366657220746f206e6f6e20455243373231526560408201527131b2b4bb32b91034b6b83632b6b2b73a32b960711b606082015260800190565b6020808252601c908201527f4552433732313a20746f6b656e20616c7265616479206d696e74656400000000604082015260600190565b6001600160a01b038581168252841660208201526040810183905260806060820181905260009061411490830184613705565b9695505050505050565b60006020828403121561413057600080fd5b8151613176816136ae56fea164736f6c6343000812000a",
  "linkReferences": {},
  "deployedLinkReferences": {}
}