{
  "_format": "hh-sol-artifact-1",
  "contractName": "NFT",
  "sourceName": "contracts/NFT.sol",
  "abi": [
    {
      "inputs": [],
      "stateMutability": "nonpayable",
      "type": "constructor"
    },
    {
      "anonymous": false,
      "inputs": [
        {
          "indexed": true,
          "internalType": "address",
          "name": "owner",
          "type": "address"
        },
        {
          "indexed": true,
          "internalType": "address",
          "name": "approved",
          "type": "address"
        },
        {
          "indexed": true,
          "internalType": "uint256",
          "name": "tokenId",
          "type": "uint256"
        }
      ],
      "name": "Approval",
      "type": "event"
    },
    {
      "anonymous": false,
      "inputs": [
        {
          "indexed": true,
          "internalType": "address",
          "name": "owner",
          "type": "address"
        },
        {
          "indexed": true,
          "internalType": "address",
          "name": "operator",
          "type": "address"
        },
        {
          "indexed": false,
          "internalType": "bool",
          "name": "approved",
          "type": "bool"
        }
      ],
      "name": "ApprovalForAll",
      "type": "event"
    },
    {
      "anonymous": false,
      "inputs": [
        {
          "indexed": true,
          "internalType": "address",
          "name": "minter",
          "type": "address"
        },
        {
          "indexed": false,
          "internalType": "uint256",
          "name": "nftID",
          "type": "uint256"
        }
      ],
      "name": "Minted",
      "type": "event"
    },
    {
      "anonymous": false,
      "inputs": [
        {
          "indexed": true,
          "internalType": "address",
          "name": "from",
          "type": "address"
        },
        {
          "indexed": true,
          "internalType": "address",
          "name": "to",
          "type": "address"
        },
        {
          "indexed": true,
          "internalType": "uint256",
          "name": "tokenId",
          "type": "uint256"
        }
      ],
      "name": "Transfer",
      "type": "event"
    },
    {
      "inputs": [
        {
          "internalType": "address",
          "name": "to",
          "type": "address"
        },
        {
          "internalType": "uint256",
          "name": "tokenId",
          "type": "uint256"
        }
      ],
      "name": "approve",
      "outputs": [],
      "stateMutability": "nonpayable",
      "type": "function"
    },
    {
      "inputs": [
        {
          "internalType": "address",
          "name": "owner",
          "type": "address"
        }
      ],
      "name": "balanceOf",
      "outputs": [
        {
          "internalType": "uint256",
          "name": "",
          "type": "uint256"
        }
      ],
      "stateMutability": "view",
      "type": "function"
    },
    {
      "inputs": [
        {
          "internalType": "uint256",
          "name": "tokenId",
          "type": "uint256"
        }
      ],
      "name": "getApproved",
      "outputs": [
        {
          "internalType": "address",
          "name": "",
          "type": "address"
        }
      ],
      "stateMutability": "view",
      "type": "function"
    },
    {
      "inputs": [
        {
          "internalType": "address",
          "name": "owner",
          "type": "address"
        }
      ],
      "name": "getOwnerTokenIds",
      "outputs": [
        {
          "internalType": "uint256[]",
          "name": "tokenIds",
          "type": "uint256[]"
        }
      ],
      "stateMutability": "view",
      "type": "function"
    },
    {
      "inputs": [
        {
          "internalType": "address",
          "name": "owner",
          "type": "address"
        },
        {
          "internalType": "address",
          "name": "operator",
          "type": "address"
        }
      ],
      "name": "isApprovedForAll",
      "outputs": [
        {
          "internalType": "bool",
          "name": "",
          "type": "bool"
        }
      ],
      "stateMutability": "view",
      "type": "function"
    },
    {
      "inputs": [],
      "name": "mintToken",
      "outputs": [],
      "stateMutability": "nonpayable",
      "type": "function"
    },
    {
      "inputs": [],
      "name": "name",
      "outputs": [
        {
          "internalType": "string",
          "name": "",
          "type": "string"
        }
      ],
      "stateMutability": "view",
      "type": "function"
    },
    {
      "inputs": [
        {
          "internalType": "uint256",
          "name": "tokenId",
          "type": "uint256"
        }
      ],
      "name": "ownerOf",
      "outputs": [
        {
          "internalType": "address",
          "name": "",
          "type": "address"
        }
      ],
      "stateMutability": "view",
      "type": "function"
    },
    {
      "inputs": [
        {
          "internalType": "address",
          "name": "from",
          "type": "address"
        },
        {
          "internalType": "address",
          "name": "to",
          "type": "address"
        },
        {
          "internalType": "uint256",
          "name": "tokenId",
          "type": "uint256"
        }
      ],
      "name": "safeTransferFrom",
      "outputs": [],
      "stateMutability": "nonpayable",
      "type": "function"
    },
    {
      "inputs": [
        {
          "internalType": "address",
          "name": "from",
          "type": "address"
        },
        {
          "internalType": "address",
          "name": "to",
          "type": "address"
        },
        {
          "internalType": "uint256",
          "name": "tokenId",
          "type": "uint256"
        },
        {
          "internalType": "bytes",
          "name": "data",
          "type": "bytes"
        }
      ],
      "name": "safeTransferFrom",
      "outputs": [],
      "stateMutability": "nonpayable",
      "type": "function"
    },
    {
      "inputs": [
        {
          "internalType": "address",
          "name": "operator",
          "type": "address"
        },
        {
          "internalType": "bool",
          "name": "approved",
          "type": "bool"
        }
      ],
      "name": "setApprovalForAll",
      "outputs": [],
      "stateMutability": "nonpayable",
      "type": "function"
    },
    {
      "inputs": [
        {
          "internalType": "bytes4",
          "name": "interfaceId",
          "type": "bytes4"
        }
      ],
      "name": "supportsInterface",
      "outputs": [
        {
          "internalType": "bool",
          "name": "",
          "type": "bool"
        }
      ],
      "stateMutability": "view",
      "type": "function"
    },
    {
      "inputs": [],
      "name": "symbol",
      "outputs": [
        {
          "internalType": "string",
          "name": "",
          "type": "string"
        }
      ],
      "stateMutability": "view",
      "type": "function"
    },
    {
      "inputs": [
        {
          "internalType": "uint256",
          "name": "index",
          "type": "uint256"
        }
      ],
      "name": "tokenByIndex",
      "outputs": [
        {
          "internalType": "uint256",
          "name": "",
          "type": "uint256"
        }
      ],
      "stateMutability": "view",
      "type": "function"
    },
    {
      "inputs": [
        {
          "internalType": "address",
          "name": "owner",
          "type": "address"
        },
        {
          "internalType": "uint256",
          "name": "index",
          "type": "uint256"
        }
      ],
      "name": "tokenOfOwnerByIndex",
      "outputs": [
        {
          "internalType": "uint256",
          "name": "",
          "type": "uint256"
        }
      ],
      "stateMutability": "view",
      "type": "function"
    },
    {
      "inputs": [
        {
          "internalType": "uint256",
          "name": "tokenId",
          "type": "uint256"
        }
      ],
      "name": "tokenURI",
      "outputs": [
        {
          "internalType": "string",
          "name": "",
          "type": "string"
        }
      ],
      "stateMutability": "view",
      "type": "function"
    },
    {
      "inputs": [],
      "name": "totalSupply",
      "outputs": [
        {
          "internalType": "uint256",
          "name": "",
          "type": "uint256"
        }
      ],
      "stateMutability": "view",
      "type": "function"
    },
    {
      "inputs": [
        {
          "internalType": "address",
          "name": "from",
          "type": "address"
        },
        {
          "internalType": "address",
          "name": "to",
          "type": "address"
        },
        {
          "internalType": "uint256",
          "name": "tokenId",
          "type": "uint256"
        }
      ],
      "name": "transferFrom",
      "outputs": [],
      "stateMutability": "nonpayable",
      "type": "function"
    }
  ],
  "bytecode": "0x60806040523480156200001157600080fd5b5060405180604001604052806009815260200168105b585e9bdb93919560ba1b815250604051806040016040528060048152602001631053919560e21b815250816000908162000062919062000124565b50600162000071828262000124565b50506001600a5550620001f0565b634e487b7160e01b600052604160045260246000fd5b600181811c90821680620000aa57607f821691505b602082108103620000cb57634e487b7160e01b600052602260045260246000fd5b50919050565b601f8211156200011f57600081815260208120601f850160051c81016020861015620000fa5750805b601f850160051c820191505b818110156200011b5782815560010162000106565b5050505b505050565b81516001600160401b038111156200014057620001406200007f565b620001588162000151845462000095565b84620000d1565b602080601f831160018114620001905760008415620001775750858301515b600019600386901b1c1916600185901b1785556200011b565b600085815260208120601f198616915b82811015620001c157888601518255948401946001909101908401620001a0565b5085821015620001e05787850151600019600388901b60f8161c191681555b5050505050600190811b01905550565b61197a80620002006000396000f3fe608060405234801561001057600080fd5b50600436106100f65760003560e01c80634f6ccce7116100925780634f6ccce7146101cb5780636352211e146101de57806370a08231146101f157806395d89b4114610204578063a22cb4651461020c578063b88d4fde1461021f578063c87b56dd14610232578063e66b600014610245578063e985e9c51461026557600080fd5b806301ffc9a7146100fb57806306fdde0314610123578063081812fc14610138578063095ea7b31461016357806318160ddd146101785780632004ffd91461018a57806323b872dd146101925780632f745c59146101a557806342842e0e146101b8575b600080fd5b61010e6101093660046113b0565b610278565b60405190151581526020015b60405180910390f35b61012b6102a3565b60405161011a919061141d565b61014b610146366004611430565b610335565b6040516001600160a01b03909116815260200161011a565b610176610171366004611465565b61035c565b005b6008545b60405190815260200161011a565b610176610476565b6101766101a036600461148f565b6104e5565b61017c6101b3366004611465565b610516565b6101766101c636600461148f565b6105ac565b61017c6101d9366004611430565b6105c7565b61014b6101ec366004611430565b61065a565b61017c6101ff3660046114cb565b61068f565b61012b610715565b61017661021a3660046114e6565b610724565b61017661022d366004611538565b610733565b61012b610240366004611430565b61076b565b6102586102533660046114cb565b6107d2565b60405161011a9190611614565b61010e610273366004611658565b6108d8565b60006001600160e01b0319821663780e9d6360e01b148061029d575061029d82610906565b92915050565b6060600080546102b29061168b565b80601f01602080910402602001604051908101604052809291908181526020018280546102de9061168b565b801561032b5780601f106103005761010080835404028352916020019161032b565b820191906000526020600020905b81548152906001019060200180831161030e57829003601f168201915b5050505050905090565b600061034082610956565b506000908152600460205260409020546001600160a01b031690565b60006103678261065a565b9050806001600160a01b0316836001600160a01b0316036103d95760405162461bcd60e51b815260206004820152602160248201527f4552433732313a20617070726f76616c20746f2063757272656e74206f776e656044820152603960f91b60648201526084015b60405180910390fd5b336001600160a01b03821614806103f557506103f581336108d8565b6104675760405162461bcd60e51b815260206004820152603d60248201527f4552433732313a20617070726f76652063616c6c6572206973206e6f7420746f60448201527f6b656e206f776e6572206f7220617070726f76656420666f7220616c6c00000060648201526084016103d0565b610471838361097e565b505050565b61047e6109ec565b61048c600b80546001019055565b6000610497600b5490565b90506104a33382610a45565b60405181815233907f30385c845b448a36257a6a1716e6ad2e1bc2cbe333cde1e69fe849ad6511adfe9060200160405180910390a2506104e36001600a55565b565b6104ef3382610b60565b61050b5760405162461bcd60e51b81526004016103d0906116bf565b610471838383610bbf565b60006105218361068f565b82106105835760405162461bcd60e51b815260206004820152602b60248201527f455243373231456e756d657261626c653a206f776e657220696e646578206f7560448201526a74206f6620626f756e647360a81b60648201526084016103d0565b506001600160a01b03919091166000908152600660209081526040808320938352929052205490565b61047183838360405180602001604052806000815250610733565b60006105d260085490565b82106106355760405162461bcd60e51b815260206004820152602c60248201527f455243373231456e756d657261626c653a20676c6f62616c20696e646578206f60448201526b7574206f6620626f756e647360a01b60648201526084016103d0565b600882815481106106485761064861170c565b90600052602060002001549050919050565b6000818152600260205260408120546001600160a01b03168061029d5760405162461bcd60e51b81526004016103d090611722565b60006001600160a01b0382166106f95760405162461bcd60e51b815260206004820152602960248201527f4552433732313a2061646472657373207a65726f206973206e6f7420612076616044820152683634b21037bbb732b960b91b60648201526084016103d0565b506001600160a01b031660009081526003602052604090205490565b6060600180546102b29061168b565b61072f338383610d30565b5050565b61073d3383610b60565b6107595760405162461bcd60e51b81526004016103d0906116bf565b61076584848484610dfa565b50505050565b606061077682610956565b6000610780610e2d565b905060008151116107a057604051806020016040528060008152506107cb565b806107aa84610e4d565b6040516020016107bb929190611754565b6040516020818303038152906040525b9392505050565b60606107dd8261068f565b67ffffffffffffffff8111156107f5576107f5611522565b60405190808252806020026020018201604052801561081e578160200160208202803683370190505b50905060005b61082d8361068f565b8110156108d257604051632f745c5960e01b81526001600160a01b0384166004820152602481018290523090632f745c5990604401602060405180830381865afa15801561087f573d6000803e3d6000fd5b505050506040513d601f19601f820116820180604052508101906108a39190611783565b8282815181106108b5576108b561170c565b6020908102919091010152806108ca816117b2565b915050610824565b50919050565b6001600160a01b03918216600090815260056020908152604080832093909416825291909152205460ff1690565b60006001600160e01b031982166380ac58cd60e01b148061093757506001600160e01b03198216635b5e139f60e01b145b8061029d57506301ffc9a760e01b6001600160e01b031983161461029d565b61095f81610ee0565b61097b5760405162461bcd60e51b81526004016103d090611722565b50565b600081815260046020526040902080546001600160a01b0319166001600160a01b03841690811790915581906109b38261065a565b6001600160a01b03167f8c5be1e5ebec7d5bd14f71427d1e84f3dd0314c0f7b2291e5b200ac8c7c3b92560405160405180910390a45050565b6002600a5403610a3e5760405162461bcd60e51b815260206004820152601f60248201527f5265656e7472616e637947756172643a207265656e7472616e742063616c6c0060448201526064016103d0565b6002600a55565b6001600160a01b038216610a9b5760405162461bcd60e51b815260206004820181905260248201527f4552433732313a206d696e7420746f20746865207a65726f206164647265737360448201526064016103d0565b610aa481610ee0565b15610ac15760405162461bcd60e51b81526004016103d0906117cb565b610acf600083836001610efd565b610ad881610ee0565b15610af55760405162461bcd60e51b81526004016103d0906117cb565b6001600160a01b038216600081815260036020908152604080832080546001019055848352600290915280822080546001600160a01b0319168417905551839291907fddf252ad1be2c89b69c2b068fc378daa952ba7f163c4a11628f55a4df523b3ef908290a45050565b600080610b6c8361065a565b9050806001600160a01b0316846001600160a01b03161480610b935750610b9381856108d8565b80610bb75750836001600160a01b0316610bac84610335565b6001600160a01b0316145b949350505050565b826001600160a01b0316610bd28261065a565b6001600160a01b031614610bf85760405162461bcd60e51b81526004016103d090611802565b6001600160a01b038216610c5a5760405162461bcd60e51b8152602060048201526024808201527f4552433732313a207472616e7366657220746f20746865207a65726f206164646044820152637265737360e01b60648201526084016103d0565b610c678383836001610efd565b826001600160a01b0316610c7a8261065a565b6001600160a01b031614610ca05760405162461bcd60e51b81526004016103d090611802565b600081815260046020908152604080832080546001600160a01b03199081169091556001600160a01b0387811680865260038552838620805460001901905590871680865283862080546001019055868652600290945282852080549092168417909155905184937fddf252ad1be2c89b69c2b068fc378daa952ba7f163c4a11628f55a4df523b3ef91a4505050565b816001600160a01b0316836001600160a01b031603610d8d5760405162461bcd60e51b815260206004820152601960248201527822a9219b99189d1030b8383937bb32903a379031b0b63632b960391b60448201526064016103d0565b6001600160a01b03838116600081815260056020908152604080832094871680845294825291829020805460ff191686151590811790915591519182527f17307eab39ab6107e8899845ad3d59bd9653f200f220920489ca2b5937696c31910160405180910390a3505050565b610e05848484610bbf565b610e1184848484611031565b6107655760405162461bcd60e51b81526004016103d090611847565b606060405180608001604052806051815260200161191d60519139905090565b60606000610e5a83611132565b600101905060008167ffffffffffffffff811115610e7a57610e7a611522565b6040519080825280601f01601f191660200182016040528015610ea4576020820181803683370190505b5090508181016020015b600019016f181899199a1a9b1b9c1cb0b131b232b360811b600a86061a8153600a8504945084610eae57509392505050565b6000908152600260205260409020546001600160a01b0316151590565b6001811115610f6c5760405162461bcd60e51b815260206004820152603560248201527f455243373231456e756d657261626c653a20636f6e7365637574697665207472604482015274185b9cd9995c9cc81b9bdd081cdd5c1c1bdc9d1959605a1b60648201526084016103d0565b816001600160a01b038516610fc857610fc381600880546000838152600960205260408120829055600182018355919091527ff3f7a9fe364faab93b216da50a3214154f22a0a2b415b23a84c8169e8b636ee30155565b610feb565b836001600160a01b0316856001600160a01b031614610feb57610feb858261120a565b6001600160a01b03841661100757611002816112a7565b61102a565b846001600160a01b0316846001600160a01b03161461102a5761102a8482611356565b5050505050565b60006001600160a01b0384163b1561112757604051630a85bd0160e11b81526001600160a01b0385169063150b7a0290611075903390899088908890600401611899565b6020604051808303816000875af19250505080156110b0575060408051601f3d908101601f191682019092526110ad918101906118d6565b60015b61110d573d8080156110de576040519150601f19603f3d011682016040523d82523d6000602084013e6110e3565b606091505b5080516000036111055760405162461bcd60e51b81526004016103d090611847565b805181602001fd5b6001600160e01b031916630a85bd0160e11b149050610bb7565b506001949350505050565b60008072184f03e93ff9f4daa797ed6e38ed64bf6a1f0160401b83106111715772184f03e93ff9f4daa797ed6e38ed64bf6a1f0160401b830492506040015b6d04ee2d6d415b85acef8100000000831061119d576d04ee2d6d415b85acef8100000000830492506020015b662386f26fc1000083106111bb57662386f26fc10000830492506010015b6305f5e10083106111d3576305f5e100830492506008015b61271083106111e757612710830492506004015b606483106111f9576064830492506002015b600a831061029d5760010192915050565b600060016112178461068f565b61122191906118f3565b600083815260076020526040902054909150808214611274576001600160a01b03841660009081526006602090815260408083208584528252808320548484528184208190558352600790915290208190555b5060009182526007602090815260408084208490556001600160a01b039094168352600681528383209183525290812055565b6008546000906112b9906001906118f3565b600083815260096020526040812054600880549394509092849081106112e1576112e161170c565b9060005260206000200154905080600883815481106113025761130261170c565b600091825260208083209091019290925582815260099091526040808220849055858252812055600880548061133a5761133a611906565b6001900381819060005260206000200160009055905550505050565b60006113618361068f565b6001600160a01b039093166000908152600660209081526040808320868452825280832085905593825260079052919091209190915550565b6001600160e01b03198116811461097b57600080fd5b6000602082840312156113c257600080fd5b81356107cb8161139a565b60005b838110156113e85781810151838201526020016113d0565b50506000910152565b600081518084526114098160208601602086016113cd565b601f01601f19169290920160200192915050565b6020815260006107cb60208301846113f1565b60006020828403121561144257600080fd5b5035919050565b80356001600160a01b038116811461146057600080fd5b919050565b6000806040838503121561147857600080fd5b61148183611449565b946020939093013593505050565b6000806000606084860312156114a457600080fd5b6114ad84611449565b92506114bb60208501611449565b9150604084013590509250925092565b6000602082840312156114dd57600080fd5b6107cb82611449565b600080604083850312156114f957600080fd5b61150283611449565b91506020830135801515811461151757600080fd5b809150509250929050565b634e487b7160e01b600052604160045260246000fd5b6000806000806080858703121561154e57600080fd5b61155785611449565b935061156560208601611449565b925060408501359150606085013567ffffffffffffffff8082111561158957600080fd5b818701915087601f83011261159d57600080fd5b8135818111156115af576115af611522565b604051601f8201601f19908116603f011681019083821181831017156115d7576115d7611522565b816040528281528a60208487010111156115f057600080fd5b82602086016020830137600060208483010152809550505050505092959194509250565b6020808252825182820181905260009190848201906040850190845b8181101561164c57835183529284019291840191600101611630565b50909695505050505050565b6000806040838503121561166b57600080fd5b61167483611449565b915061168260208401611449565b90509250929050565b600181811c9082168061169f57607f821691505b6020821081036108d257634e487b7160e01b600052602260045260246000fd5b6020808252602d908201527f4552433732313a2063616c6c6572206973206e6f7420746f6b656e206f776e6560408201526c1c881bdc88185c1c1c9bdd9959609a1b606082015260800190565b634e487b7160e01b600052603260045260246000fd5b602080825260189082015277115490cdcc8c4e881a5b9d985b1a59081d1bdad95b88125160421b604082015260600190565b600083516117668184602088016113cd565b83519083019061177a8183602088016113cd565b01949350505050565b60006020828403121561179557600080fd5b5051919050565b634e487b7160e01b600052601160045260246000fd5b6000600182016117c4576117c461179c565b5060010190565b6020808252601c908201527f4552433732313a20746f6b656e20616c7265616479206d696e74656400000000604082015260600190565b60208082526025908201527f4552433732313a207472616e736665722066726f6d20696e636f72726563742060408201526437bbb732b960d91b606082015260800190565b60208082526032908201527f4552433732313a207472616e7366657220746f206e6f6e20455243373231526560408201527131b2b4bb32b91034b6b83632b6b2b73a32b960711b606082015260800190565b6001600160a01b03858116825284166020820152604081018390526080606082018190526000906118cc908301846113f1565b9695505050505050565b6000602082840312156118e857600080fd5b81516107cb8161139a565b8181038181111561029d5761029d61179c565b634e487b7160e01b600052603160045260246000fdfe68747470733a2f2f676174657761792e70696e6174612e636c6f75642f697066732f516d5a624b416e31486942434e31584c707068436d6d684d41325a7a4c5a317575624a7245697a524650663866472fa164736f6c6343000812000a",
  "linkReferences": {},
  "deployedLinkReferences": {}
}