{
  "_format": "hh-sol-artifact-1",
  "contractName": "NFTAuction",
  "sourceName": "contracts/NFTAuction.sol",
  "abi": [
    {
      "inputs": [],
      "stateMutability": "nonpayable",
      "type": "constructor"
    },
    {
      "anonymous": false,
      "inputs": [
        {
          "indexed": false,
          "internalType": "uint256",
          "name": "listingId",
          "type": "uint256"
        },
        {
          "indexed": true,
          "internalType": "address",
          "name": "seller",
          "type": "address"
        },
        {
          "indexed": true,
          "internalType": "address",
          "name": "bidder",
          "type": "address"
        },
        {
          "indexed": false,
          "internalType": "uint256",
          "name": "bid",
          "type": "uint256"
        }
      ],
      "name": "AuctionCompleted",
      "type": "event"
    },
    {
      "anonymous": false,
      "inputs": [
        {
          "indexed": false,
          "internalType": "uint256",
          "name": "listingId",
          "type": "uint256"
        },
        {
          "indexed": true,
          "internalType": "address",
          "name": "seller",
          "type": "address"
        },
        {
          "indexed": false,
          "internalType": "uint256",
          "name": "price",
          "type": "uint256"
        },
        {
          "indexed": false,
          "internalType": "uint256",
          "name": "tokenId",
          "type": "uint256"
        },
        {
          "indexed": false,
          "internalType": "uint256",
          "name": "startAt",
          "type": "uint256"
        },
        {
          "indexed": false,
          "internalType": "uint256",
          "name": "endAt",
          "type": "uint256"
        }
      ],
      "name": "AuctionCreated",
      "type": "event"
    },
    {
      "anonymous": false,
      "inputs": [
        {
          "indexed": false,
          "internalType": "uint256",
          "name": "listingId",
          "type": "uint256"
        },
        {
          "indexed": true,
          "internalType": "address",
          "name": "bidder",
          "type": "address"
        },
        {
          "indexed": false,
          "internalType": "uint256",
          "name": "bid",
          "type": "uint256"
        }
      ],
      "name": "BidCreated",
      "type": "event"
    },
    {
      "anonymous": false,
      "inputs": [
        {
          "indexed": false,
          "internalType": "uint256",
          "name": "listingId",
          "type": "uint256"
        },
        {
          "indexed": true,
          "internalType": "address",
          "name": "bidder",
          "type": "address"
        },
        {
          "indexed": false,
          "internalType": "uint256",
          "name": "bid",
          "type": "uint256"
        }
      ],
      "name": "WithdrawBid",
      "type": "event"
    },
    {
      "inputs": [
        {
          "internalType": "uint256",
          "name": "listingId",
          "type": "uint256"
        }
      ],
      "name": "bid",
      "outputs": [],
      "stateMutability": "payable",
      "type": "function"
    },
    {
      "inputs": [
        {
          "internalType": "uint256",
          "name": "",
          "type": "uint256"
        },
        {
          "internalType": "address",
          "name": "",
          "type": "address"
        }
      ],
      "name": "bids",
      "outputs": [
        {
          "internalType": "uint256",
          "name": "",
          "type": "uint256"
        }
      ],
      "stateMutability": "view",
      "type": "function"
    },
    {
      "inputs": [
        {
          "internalType": "uint256",
          "name": "listingId",
          "type": "uint256"
        }
      ],
      "name": "completeAuction",
      "outputs": [],
      "stateMutability": "payable",
      "type": "function"
    },
    {
      "inputs": [
        {
          "components": [
            {
              "internalType": "address",
              "name": "nftAddress",
              "type": "address"
            },
            {
              "internalType": "uint256",
              "name": "tokenId",
              "type": "uint256"
            },
            {
              "internalType": "uint256",
              "name": "price",
              "type": "uint256"
            },
            {
              "internalType": "uint256",
              "name": "startAt",
              "type": "uint256"
            },
            {
              "internalType": "uint256",
              "name": "endAt",
              "type": "uint256"
            },
            {
              "internalType": "string",
              "name": "tokenURI",
              "type": "string"
            },
            {
              "internalType": "string",
              "name": "name",
              "type": "string"
            },
            {
              "internalType": "string",
              "name": "description",
              "type": "string"
            }
          ],
          "internalType": "struct NFTAuction.CreateAuctionListingParam",
          "name": "createAuctionListingParam",
          "type": "tuple"
        }
      ],
      "name": "createAuctionListing",
      "outputs": [],
      "stateMutability": "nonpayable",
      "type": "function"
    },
    {
      "inputs": [],
      "name": "getAuctionLists",
      "outputs": [
        {
          "components": [
            {
              "internalType": "address",
              "name": "nftAddress",
              "type": "address"
            },
            {
              "internalType": "address",
              "name": "seller",
              "type": "address"
            },
            {
              "internalType": "uint256",
              "name": "tokenId",
              "type": "uint256"
            },
            {
              "internalType": "uint256",
              "name": "price",
              "type": "uint256"
            },
            {
              "internalType": "uint256",
              "name": "netPrice",
              "type": "uint256"
            },
            {
              "internalType": "uint256",
              "name": "startAt",
              "type": "uint256"
            },
            {
              "internalType": "uint256",
              "name": "endAt",
              "type": "uint256"
            },
            {
              "internalType": "uint8",
              "name": "status",
              "type": "uint8"
            },
            {
              "internalType": "string",
              "name": "tokenURI",
              "type": "string"
            },
            {
              "internalType": "uint256",
              "name": "listingId",
              "type": "uint256"
            },
            {
              "internalType": "string",
              "name": "name",
              "type": "string"
            },
            {
              "internalType": "string",
              "name": "description",
              "type": "string"
            }
          ],
          "internalType": "struct NFTAuction.Listing[]",
          "name": "Auctions",
          "type": "tuple[]"
        }
      ],
      "stateMutability": "view",
      "type": "function"
    },
    {
      "inputs": [
        {
          "internalType": "uint256",
          "name": "listingId",
          "type": "uint256"
        }
      ],
      "name": "getBids",
      "outputs": [
        {
          "components": [
            {
              "internalType": "address",
              "name": "bidder",
              "type": "address"
            },
            {
              "internalType": "uint256",
              "name": "bidPrice",
              "type": "uint256"
            }
          ],
          "internalType": "struct NFTAuction.Bid[]",
          "name": "returnBids",
          "type": "tuple[]"
        }
      ],
      "stateMutability": "view",
      "type": "function"
    },
    {
      "inputs": [
        {
          "internalType": "uint256",
          "name": "",
          "type": "uint256"
        }
      ],
      "name": "highestBidder",
      "outputs": [
        {
          "internalType": "address",
          "name": "",
          "type": "address"
        }
      ],
      "stateMutability": "view",
      "type": "function"
    },
    {
      "inputs": [
        {
          "internalType": "uint256",
          "name": "id",
          "type": "uint256"
        }
      ],
      "name": "isAuctionExpired",
      "outputs": [
        {
          "internalType": "bool",
          "name": "",
          "type": "bool"
        }
      ],
      "stateMutability": "view",
      "type": "function"
    },
    {
      "inputs": [
        {
          "internalType": "uint256",
          "name": "id",
          "type": "uint256"
        }
      ],
      "name": "isAuctionOpen",
      "outputs": [
        {
          "internalType": "bool",
          "name": "",
          "type": "bool"
        }
      ],
      "stateMutability": "view",
      "type": "function"
    },
    {
      "inputs": [
        {
          "internalType": "uint256",
          "name": "id",
          "type": "uint256"
        }
      ],
      "name": "isAuctionStarted",
      "outputs": [
        {
          "internalType": "bool",
          "name": "",
          "type": "bool"
        }
      ],
      "stateMutability": "view",
      "type": "function"
    },
    {
      "inputs": [
        {
          "internalType": "uint256",
          "name": "",
          "type": "uint256"
        }
      ],
      "name": "listings",
      "outputs": [
        {
          "internalType": "address",
          "name": "nftAddress",
          "type": "address"
        },
        {
          "internalType": "address",
          "name": "seller",
          "type": "address"
        },
        {
          "internalType": "uint256",
          "name": "tokenId",
          "type": "uint256"
        },
        {
          "internalType": "uint256",
          "name": "price",
          "type": "uint256"
        },
        {
          "internalType": "uint256",
          "name": "netPrice",
          "type": "uint256"
        },
        {
          "internalType": "uint256",
          "name": "startAt",
          "type": "uint256"
        },
        {
          "internalType": "uint256",
          "name": "endAt",
          "type": "uint256"
        },
        {
          "internalType": "uint8",
          "name": "status",
          "type": "uint8"
        },
        {
          "internalType": "string",
          "name": "tokenURI",
          "type": "string"
        },
        {
          "internalType": "uint256",
          "name": "listingId",
          "type": "uint256"
        },
        {
          "internalType": "string",
          "name": "name",
          "type": "string"
        },
        {
          "internalType": "string",
          "name": "description",
          "type": "string"
        }
      ],
      "stateMutability": "view",
      "type": "function"
    },
    {
      "inputs": [
        {
          "internalType": "address",
          "name": "",
          "type": "address"
        },
        {
          "internalType": "address",
          "name": "",
          "type": "address"
        },
        {
          "internalType": "uint256",
          "name": "",
          "type": "uint256"
        },
        {
          "internalType": "bytes",
          "name": "",
          "type": "bytes"
        }
      ],
      "name": "onERC721Received",
      "outputs": [
        {
          "internalType": "bytes4",
          "name": "",
          "type": "bytes4"
        }
      ],
      "stateMutability": "nonpayable",
      "type": "function"
    },
    {
      "inputs": [
        {
          "internalType": "uint256",
          "name": "listingId",
          "type": "uint256"
        }
      ],
      "name": "withdrawBid",
      "outputs": [],
      "stateMutability": "payable",
      "type": "function"
    }
  ],
  "bytecode": "0x608060405234801561001057600080fd5b506001600055611ade806100256000396000f3fe6080604052600436106100b25760003560e01c80633f1ffcec1161006f5780633f1ffcec146101b8578063451df52e146101fe578063454a2ab31461024c5780634f5c7a8a1461025f5780636d72b86d1461027f578063c1b9a85a146102a1578063de74e57b146102d457600080fd5b80630ad48628146100b75780630eaaf4c8146100ec578063131d9a27146101015780631389b1171461012e578063150b7a021461016157806321b62886146101a5575b600080fd5b3480156100c357600080fd5b506100d76100d236600461142b565b61030c565b60405190151581526020015b60405180910390f35b6100ff6100fa36600461142b565b610346565b005b34801561010d57600080fd5b5061012161011c36600461142b565b6104ee565b6040516100e39190611444565b34801561013a57600080fd5b506100d761014936600461142b565b60009081526002602052604090206006015442101590565b34801561016d57600080fd5b5061018c61017c36600461156c565b630a85bd0160e11b949350505050565b6040516001600160e01b031990911681526020016100e3565b6100ff6101b336600461142b565b610614565b3480156101c457600080fd5b506101f06101d33660046115e7565b600360209081526000928352604080842090915290825290205481565b6040519081526020016100e3565b34801561020a57600080fd5b5061023461021936600461142b565b6004602052600090815260409020546001600160a01b031681565b6040516001600160a01b0390911681526020016100e3565b6100ff61025a36600461142b565b6108b2565b34801561026b57600080fd5b506100ff61027a366004611633565b610ac3565b34801561028b57600080fd5b50610294610d47565b6040516100e39190611767565b3480156102ad57600080fd5b506100d76102bc36600461142b565b60009081526002602052604090206005015442101590565b3480156102e057600080fd5b506102f46102ef36600461142b565b6110a5565b6040516100e39c9b9a9998979695949392919061187d565b60008181526002602052604081206007015460ff166001148015610340575060008281526002602052604090206006015442105b92915050565b61034e6112af565b6000818152600260205260409020600601544210156103ac5760405162461bcd60e51b8152602060048201526015602482015274185d58dd1a5bdb881b5d5cdd08189948195b991959605a1b60448201526064015b60405180910390fd5b600081815260046020526040902054336001600160a01b039091160361041f5760405162461bcd60e51b815260206004820152602260248201527f68696768657374206269646465722063616e6e6f7420776974686472617720626044820152611a5960f21b60648201526084016103a3565b60008181526003602090815260408083203384529091528120549081900361047e5760405162461bcd60e51b81526020600482015260126024820152716e6f2062696420746f20776974686472617760701b60448201526064016103a3565b60008281526003602090815260408083203380855292528220919091556104a59082611308565b604080518381526020810183905233917f5eec25485ddf1aad4b5c89eda65e6053949901bfb1fe6f4c553e9c208b5bd5f8910160405180910390a2506104eb6001600055565b50565b60008181526005602052604090206060906105089061135e565b6001600160401b0381111561051f5761051f6114b8565b60405190808252806020026020018201604052801561056457816020015b604080518082019091526000808252602082015281526020019060019003908161053d5790505b50905060005b60008381526005602052604090206105819061135e565b81101561060e5760008381526005602052604081206105a09083611368565b6040805180820182526001600160a01b0383168082526000888152600360209081528482209282529182529290922054918101919091528451919250908490849081106105ef576105ef611914565b602002602001018190525050808061060690611940565b91505061056a565b50919050565b61061c6112af565b6106258161030c565b1561066a5760405162461bcd60e51b815260206004820152601560248201527430bab1ba34b7b71034b99039ba34b6361037b832b760591b60448201526064016103a3565b600081815260026020908152604080832060049092529091205460018201546001600160a01b0391821691163314806106ab5750336001600160a01b038216145b61070a5760405162461bcd60e51b815260206004820152602a60248201527f6f6e6c792073656c6c6572206f722077696e6e65722063616e20636f6d706c656044820152693a329030bab1ba34b7b760b11b60648201526084016103a3565b6001600160a01b038116156107c05781546002830154604051632142170760e11b81526001600160a01b03909216916342842e0e9161074f9130918691600401611959565b600060405180830381600087803b15801561076957600080fd5b505af115801561077d573d6000803e3d6000fd5b50505060008481526003602090815260408083206001600160a01b03868116855292528220805492905560018501549192506107ba911682611308565b50610831565b815460018301546002840154604051632142170760e11b81526001600160a01b03938416936342842e0e936107fe9330939290911691600401611959565b600060405180830381600087803b15801561081857600080fd5b505af115801561082c573d6000803e3d6000fd5b505050505b60078201805460ff19166002179055600182015460008481526003602090815260408083206001600160a01b0386811680865291845293829020548251898152938401529392909216917f7a59a6c36c8b7dc5080444722a7a194bf83837c893f984bcea8692e91551fc47910160405180910390a350506104eb6001600055565b6108ba6112af565b6000818152600260205260409020600501544210156109155760405162461bcd60e51b8152602060048201526017602482015276185d58dd1a5bdb881a185cc81b9bdd081cdd185c9d1959604a1b60448201526064016103a3565b61091e8161030c565b61095e5760405162461bcd60e51b8152602060048201526011602482015270185d58dd1a5bdb881a185cc8195b991959607a1b60448201526064016103a3565b60008181526002602090815260408083206003835281842033855290925282205490919061098d90349061197d565b9050816003015481116109f45760405162461bcd60e51b815260206004820152602960248201527f63616e6e6f74206269642062656c6f7720746865206c61746573742062696464604482015268696e6720707269636560b81b60648201526084016103a3565b600083815260036020908152604080832033845290915281208054349290610a1d90849061197d565b9091555050600083815260046020908152604080832080546001600160a01b03191633908117909155600386018590556005909252909120610a5e9161137b565b610a7c576000838152600560205260409020610a7a903361139d565b505b604080518481526020810183905233917f0bda7f7cf42011b27b057b83f3bf21f963b84eb591478e6b413b18d7872cd37a910160405180910390a250506104eb6001600055565b610ad1600180546001019055565b6000610adc60015490565b905060405180610180016040528083600001516001600160a01b03168152602001336001600160a01b031681526020018360200151815260200183604001518152602001836040015181526020018360600151815260200183608001518152602001600160ff1681526020018360a0015181526020018281526020018360c0015181526020018360e001518152506002600083815260200190815260200160002060008201518160000160006101000a8154816001600160a01b0302191690836001600160a01b0316021790555060208201518160010160006101000a8154816001600160a01b0302191690836001600160a01b0316021790555060408201518160020155606082015181600301556080820151816004015560a0820151816005015560c0820151816006015560e08201518160070160006101000a81548160ff021916908360ff160217905550610100820151816008019081610c409190611a12565b506101208201516009820155610140820151600a820190610c619082611a12565b50610160820151600b820190610c779082611a12565b505082516020840151604051632142170760e11b81526001600160a01b0390921692506342842e0e91610cb1913391309190600401611959565b600060405180830381600087803b158015610ccb57600080fd5b505af1158015610cdf573d6000803e3d6000fd5b5050506040808401516020808601516060808801516080808a015187518a81529586019690965295840192909252820152918201523391507e09646912aaa7019ad837e57cc5c0613299c8432f5268d4450ab8673fe0fa039060a00160405180910390a25050565b6060610d5260015490565b6001600160401b03811115610d6957610d696114b8565b604051908082528060200260200182016040528015610e1357816020015b610e0060405180610180016040528060006001600160a01b0316815260200160006001600160a01b031681526020016000815260200160008152602001600081526020016000815260200160008152602001600060ff168152602001606081526020016000815260200160608152602001606081525090565b815260200190600190039081610d875790505b50905060005b6001548110156110a15760026000610e3283600161197d565b8152602080820192909252604090810160002081516101808101835281546001600160a01b039081168252600183015416938101939093526002810154918301919091526003810154606083015260048101546080830152600581015460a0830152600681015460c0830152600781015460ff1660e083015260088101805461010084019190610ec190611990565b80601f0160208091040260200160405190810160405280929190818152602001828054610eed90611990565b8015610f3a5780601f10610f0f57610100808354040283529160200191610f3a565b820191906000526020600020905b815481529060010190602001808311610f1d57829003601f168201915b5050505050815260200160098201548152602001600a82018054610f5d90611990565b80601f0160208091040260200160405190810160405280929190818152602001828054610f8990611990565b8015610fd65780601f10610fab57610100808354040283529160200191610fd6565b820191906000526020600020905b815481529060010190602001808311610fb957829003601f168201915b50505050508152602001600b82018054610fef90611990565b80601f016020809104026020016040519081016040528092919081815260200182805461101b90611990565b80156110685780601f1061103d57610100808354040283529160200191611068565b820191906000526020600020905b81548152906001019060200180831161104b57829003601f168201915b50505050508152505082828151811061108357611083611914565b6020026020010181905250808061109990611940565b915050610e19565b5090565b60026020819052600091825260409091208054600182015492820154600383015460048401546005850154600686015460078701546008880180546001600160a01b039889169a909816989697959694959394929360ff909216929161110a90611990565b80601f016020809104026020016040519081016040528092919081815260200182805461113690611990565b80156111835780601f1061115857610100808354040283529160200191611183565b820191906000526020600020905b81548152906001019060200180831161116657829003601f168201915b50505050509080600901549080600a01805461119e90611990565b80601f01602080910402602001604051908101604052809291908181526020018280546111ca90611990565b80156112175780601f106111ec57610100808354040283529160200191611217565b820191906000526020600020905b8154815290600101906020018083116111fa57829003601f168201915b50505050509080600b01805461122c90611990565b80601f016020809104026020016040519081016040528092919081815260200182805461125890611990565b80156112a55780601f1061127a576101008083540402835291602001916112a5565b820191906000526020600020905b81548152906001019060200180831161128857829003601f168201915b505050505090508c565b6002600054036113015760405162461bcd60e51b815260206004820152601f60248201527f5265656e7472616e637947756172643a207265656e7472616e742063616c6c0060448201526064016103a3565b6002600055565b600080600080600085875af19050806113595760405162461bcd60e51b815260206004820152601360248201527211551217d514905394d1915497d19052531151606a1b60448201526064016103a3565b505050565b6000610340825490565b600061137483836113b2565b9392505050565b6001600160a01b03811660009081526001830160205260408120541515611374565b6000611374836001600160a01b0384166113dc565b60008260000182815481106113c9576113c9611914565b9060005260206000200154905092915050565b600081815260018301602052604081205461142357508154600181810184556000848152602080822090930184905584548482528286019093526040902091909155610340565b506000610340565b60006020828403121561143d57600080fd5b5035919050565b602080825282518282018190526000919060409081850190868401855b8281101561148f57815180516001600160a01b03168552860151868501529284019290850190600101611461565b5091979650505050505050565b80356001600160a01b03811681146114b357600080fd5b919050565b634e487b7160e01b600052604160045260246000fd5b60405161010081016001600160401b03811182821017156114f1576114f16114b8565b60405290565b60006001600160401b0380841115611511576115116114b8565b604051601f8501601f19908116603f01168101908282118183101715611539576115396114b8565b8160405280935085815286868601111561155257600080fd5b858560208301376000602087830101525050509392505050565b6000806000806080858703121561158257600080fd5b61158b8561149c565b93506115996020860161149c565b92506040850135915060608501356001600160401b038111156115bb57600080fd5b8501601f810187136115cc57600080fd5b6115db878235602084016114f7565b91505092959194509250565b600080604083850312156115fa57600080fd5b8235915061160a6020840161149c565b90509250929050565b600082601f83011261162457600080fd5b611374838335602085016114f7565b60006020828403121561164557600080fd5b81356001600160401b038082111561165c57600080fd5b90830190610100828603121561167157600080fd5b6116796114ce565b6116828361149c565b81526020830135602082015260408301356040820152606083013560608201526080830135608082015260a0830135828111156116be57600080fd5b6116ca87828601611613565b60a08301525060c0830135828111156116e257600080fd5b6116ee87828601611613565b60c08301525060e08301358281111561170657600080fd5b61171287828601611613565b60e08301525095945050505050565b6000815180845260005b818110156117475760208185018101518683018201520161172b565b506000602082860101526020601f19601f83011685010191505092915050565b60006020808301818452808551808352604092508286019150828160051b87010184880160005b8381101561186f57603f19898403018552815180516001600160a01b0390811685528882015116888501528681015187850152606080820151908501526080808201519085015260a0808201519085015260c0808201519085015260e08082015160ff169085015261010080820151610180828701819052919061181483880182611721565b92505050610120808301518187015250610140808301518683038288015261183c8382611721565b92505050610160808301519250858203818701525061185b8183611721565b96890196945050509086019060010161178e565b509098975050505050505050565b600060018060a01b03808f168352808e166020840152508b60408301528a60608301528960808301528860a08301528760c083015260ff871660e08301526101806101008301526118d2610180830187611721565b856101208401528281036101408401526118ec8186611721565b90508281036101608401526119018185611721565b9f9e505050505050505050505050505050565b634e487b7160e01b600052603260045260246000fd5b634e487b7160e01b600052601160045260246000fd5b6000600182016119525761195261192a565b5060010190565b6001600160a01b039384168152919092166020820152604081019190915260600190565b808201808211156103405761034061192a565b600181811c908216806119a457607f821691505b60208210810361060e57634e487b7160e01b600052602260045260246000fd5b601f82111561135957600081815260208120601f850160051c810160208610156119eb5750805b601f850160051c820191505b81811015611a0a578281556001016119f7565b505050505050565b81516001600160401b03811115611a2b57611a2b6114b8565b611a3f81611a398454611990565b846119c4565b602080601f831160018114611a745760008415611a5c5750858301515b600019600386901b1c1916600185901b178555611a0a565b600085815260208120601f198616915b82811015611aa357888601518255948401946001909101908401611a84565b5085821015611ac15787850151600019600388901b60f8161c191681555b5050505050600190811b0190555056fea164736f6c6343000812000a",
  "linkReferences": {},
  "deployedLinkReferences": {}
}