{
  "_format": "hh-sol-artifact-1",
  "contractName": "NFTAuction",
  "sourceName": "contracts/NFTAuction.sol",
  "abi": [
    {
      "inputs": [],
      "stateMutability": "nonpayable",
      "type": "constructor"
    },
    {
      "anonymous": false,
      "inputs": [
        {
          "indexed": false,
          "internalType": "uint256",
          "name": "listingId",
          "type": "uint256"
        },
        {
          "indexed": true,
          "internalType": "address",
          "name": "seller",
          "type": "address"
        },
        {
          "indexed": true,
          "internalType": "address",
          "name": "bidder",
          "type": "address"
        },
        {
          "indexed": false,
          "internalType": "uint256",
          "name": "bid",
          "type": "uint256"
        }
      ],
      "name": "AuctionCompleted",
      "type": "event"
    },
    {
      "anonymous": false,
      "inputs": [
        {
          "indexed": false,
          "internalType": "uint256",
          "name": "listingId",
          "type": "uint256"
        },
        {
          "indexed": true,
          "internalType": "address",
          "name": "seller",
          "type": "address"
        },
        {
          "indexed": false,
          "internalType": "uint256",
          "name": "price",
          "type": "uint256"
        },
        {
          "indexed": false,
          "internalType": "uint256",
          "name": "tokenId",
          "type": "uint256"
        },
        {
          "indexed": false,
          "internalType": "uint256",
          "name": "startAt",
          "type": "uint256"
        },
        {
          "indexed": false,
          "internalType": "uint256",
          "name": "endAt",
          "type": "uint256"
        }
      ],
      "name": "AuctionCreated",
      "type": "event"
    },
    {
      "anonymous": false,
      "inputs": [
        {
          "indexed": false,
          "internalType": "uint256",
          "name": "listingId",
          "type": "uint256"
        },
        {
          "indexed": true,
          "internalType": "address",
          "name": "bidder",
          "type": "address"
        },
        {
          "indexed": false,
          "internalType": "uint256",
          "name": "bid",
          "type": "uint256"
        }
      ],
      "name": "BidCreated",
      "type": "event"
    },
    {
      "anonymous": false,
      "inputs": [
        {
          "indexed": false,
          "internalType": "uint256",
          "name": "listingId",
          "type": "uint256"
        },
        {
          "indexed": true,
          "internalType": "address",
          "name": "bidder",
          "type": "address"
        },
        {
          "indexed": false,
          "internalType": "uint256",
          "name": "bid",
          "type": "uint256"
        }
      ],
      "name": "WithdrawBid",
      "type": "event"
    },
    {
      "inputs": [
        {
          "internalType": "uint256",
          "name": "listingId",
          "type": "uint256"
        }
      ],
      "name": "bid",
      "outputs": [],
      "stateMutability": "payable",
      "type": "function"
    },
    {
      "inputs": [
        {
          "internalType": "uint256",
          "name": "",
          "type": "uint256"
        },
        {
          "internalType": "address",
          "name": "",
          "type": "address"
        }
      ],
      "name": "bids",
      "outputs": [
        {
          "internalType": "uint256",
          "name": "",
          "type": "uint256"
        }
      ],
      "stateMutability": "view",
      "type": "function"
    },
    {
      "inputs": [
        {
          "internalType": "uint256",
          "name": "listingId",
          "type": "uint256"
        }
      ],
      "name": "completeAuction",
      "outputs": [],
      "stateMutability": "payable",
      "type": "function"
    },
    {
      "inputs": [
        {
          "components": [
            {
              "internalType": "address",
              "name": "nftAddress",
              "type": "address"
            },
            {
              "internalType": "uint256",
              "name": "tokenId",
              "type": "uint256"
            },
            {
              "internalType": "uint256",
              "name": "price",
              "type": "uint256"
            },
            {
              "internalType": "uint256",
              "name": "startAt",
              "type": "uint256"
            },
            {
              "internalType": "uint256",
              "name": "endAt",
              "type": "uint256"
            },
            {
              "internalType": "string",
              "name": "tokenURI",
              "type": "string"
            },
            {
              "internalType": "string",
              "name": "name",
              "type": "string"
            },
            {
              "internalType": "string",
              "name": "description",
              "type": "string"
            }
          ],
          "internalType": "struct NFTAuction.CreateAuctionListingParam",
          "name": "createAuctionListingParam",
          "type": "tuple"
        }
      ],
      "name": "createAuctionListing",
      "outputs": [],
      "stateMutability": "nonpayable",
      "type": "function"
    },
    {
      "inputs": [],
      "name": "getAuctionLists",
      "outputs": [
        {
          "components": [
            {
              "internalType": "address",
              "name": "nftAddress",
              "type": "address"
            },
            {
              "internalType": "address",
              "name": "seller",
              "type": "address"
            },
            {
              "internalType": "uint256",
              "name": "tokenId",
              "type": "uint256"
            },
            {
              "internalType": "uint256",
              "name": "price",
              "type": "uint256"
            },
            {
              "internalType": "uint256",
              "name": "netPrice",
              "type": "uint256"
            },
            {
              "internalType": "uint256",
              "name": "startAt",
              "type": "uint256"
            },
            {
              "internalType": "uint256",
              "name": "endAt",
              "type": "uint256"
            },
            {
              "internalType": "uint8",
              "name": "status",
              "type": "uint8"
            },
            {
              "internalType": "string",
              "name": "tokenURI",
              "type": "string"
            },
            {
              "internalType": "uint256",
              "name": "listingId",
              "type": "uint256"
            },
            {
              "internalType": "string",
              "name": "name",
              "type": "string"
            },
            {
              "internalType": "string",
              "name": "description",
              "type": "string"
            }
          ],
          "internalType": "struct NFTAuction.Listing[]",
          "name": "Auctions",
          "type": "tuple[]"
        }
      ],
      "stateMutability": "view",
      "type": "function"
    },
    {
      "inputs": [
        {
          "internalType": "uint256",
          "name": "listingId",
          "type": "uint256"
        }
      ],
      "name": "getBids",
      "outputs": [
        {
          "components": [
            {
              "internalType": "address",
              "name": "bidder",
              "type": "address"
            },
            {
              "internalType": "uint256",
              "name": "bidPrice",
              "type": "uint256"
            }
          ],
          "internalType": "struct NFTAuction.Bid[]",
          "name": "returnBids",
          "type": "tuple[]"
        }
      ],
      "stateMutability": "view",
      "type": "function"
    },
    {
      "inputs": [
        {
          "internalType": "uint256",
          "name": "",
          "type": "uint256"
        }
      ],
      "name": "highestBidder",
      "outputs": [
        {
          "internalType": "address",
          "name": "",
          "type": "address"
        }
      ],
      "stateMutability": "view",
      "type": "function"
    },
    {
      "inputs": [
        {
          "internalType": "uint256",
          "name": "id",
          "type": "uint256"
        }
      ],
      "name": "isAuctionExpired",
      "outputs": [
        {
          "internalType": "bool",
          "name": "",
          "type": "bool"
        }
      ],
      "stateMutability": "view",
      "type": "function"
    },
    {
      "inputs": [
        {
          "internalType": "uint256",
          "name": "id",
          "type": "uint256"
        }
      ],
      "name": "isAuctionOpen",
      "outputs": [
        {
          "internalType": "bool",
          "name": "",
          "type": "bool"
        }
      ],
      "stateMutability": "view",
      "type": "function"
    },
    {
      "inputs": [
        {
          "internalType": "uint256",
          "name": "id",
          "type": "uint256"
        }
      ],
      "name": "isAuctionStarted",
      "outputs": [
        {
          "internalType": "bool",
          "name": "",
          "type": "bool"
        }
      ],
      "stateMutability": "view",
      "type": "function"
    },
    {
      "inputs": [
        {
          "internalType": "uint256",
          "name": "",
          "type": "uint256"
        }
      ],
      "name": "listings",
      "outputs": [
        {
          "internalType": "address",
          "name": "nftAddress",
          "type": "address"
        },
        {
          "internalType": "address",
          "name": "seller",
          "type": "address"
        },
        {
          "internalType": "uint256",
          "name": "tokenId",
          "type": "uint256"
        },
        {
          "internalType": "uint256",
          "name": "price",
          "type": "uint256"
        },
        {
          "internalType": "uint256",
          "name": "netPrice",
          "type": "uint256"
        },
        {
          "internalType": "uint256",
          "name": "startAt",
          "type": "uint256"
        },
        {
          "internalType": "uint256",
          "name": "endAt",
          "type": "uint256"
        },
        {
          "internalType": "uint8",
          "name": "status",
          "type": "uint8"
        },
        {
          "internalType": "string",
          "name": "tokenURI",
          "type": "string"
        },
        {
          "internalType": "uint256",
          "name": "listingId",
          "type": "uint256"
        },
        {
          "internalType": "string",
          "name": "name",
          "type": "string"
        },
        {
          "internalType": "string",
          "name": "description",
          "type": "string"
        }
      ],
      "stateMutability": "view",
      "type": "function"
    },
    {
      "inputs": [
        {
          "internalType": "address",
          "name": "",
          "type": "address"
        },
        {
          "internalType": "address",
          "name": "",
          "type": "address"
        },
        {
          "internalType": "uint256",
          "name": "",
          "type": "uint256"
        },
        {
          "internalType": "bytes",
          "name": "",
          "type": "bytes"
        }
      ],
      "name": "onERC721Received",
      "outputs": [
        {
          "internalType": "bytes4",
          "name": "",
          "type": "bytes4"
        }
      ],
      "stateMutability": "nonpayable",
      "type": "function"
    },
    {
      "inputs": [
        {
          "internalType": "uint256",
          "name": "listingId",
          "type": "uint256"
        }
      ],
      "name": "withdrawBid",
      "outputs": [],
      "stateMutability": "payable",
      "type": "function"
    }
  ],
  "bytecode": "0x608060405234801561001057600080fd5b506001600055611a80806100256000396000f3fe6080604052600436106100b25760003560e01c80633f1ffcec1161006f5780633f1ffcec146101b8578063451df52e146101fe578063454a2ab31461024c5780634f5c7a8a1461025f5780636d72b86d1461027f578063c1b9a85a146102a1578063de74e57b146102d457600080fd5b80630ad48628146100b75780630eaaf4c8146100ec578063131d9a27146101015780631389b1171461012e578063150b7a021461016157806321b62886146101a5575b600080fd5b3480156100c357600080fd5b506100d76100d23660046113cd565b61030c565b60405190151581526020015b60405180910390f35b6100ff6100fa3660046113cd565b610346565b005b34801561010d57600080fd5b5061012161011c3660046113cd565b610490565b6040516100e391906113e6565b34801561013a57600080fd5b506100d76101493660046113cd565b60009081526002602052604090206006015442101590565b34801561016d57600080fd5b5061018c61017c36600461150e565b630a85bd0160e11b949350505050565b6040516001600160e01b031990911681526020016100e3565b6100ff6101b33660046113cd565b6105b6565b3480156101c457600080fd5b506101f06101d3366004611589565b600360209081526000928352604080842090915290825290205481565b6040519081526020016100e3565b34801561020a57600080fd5b506102346102193660046113cd565b6004602052600090815260409020546001600160a01b031681565b6040516001600160a01b0390911681526020016100e3565b6100ff61025a3660046113cd565b610854565b34801561026b57600080fd5b506100ff61027a3660046115d5565b610a65565b34801561028b57600080fd5b50610294610ce9565b6040516100e39190611709565b3480156102ad57600080fd5b506100d76102bc3660046113cd565b60009081526002602052604090206005015442101590565b3480156102e057600080fd5b506102f46102ef3660046113cd565b611047565b6040516100e39c9b9a9998979695949392919061181f565b60008181526002602052604081206007015460ff166001148015610340575060008281526002602052604090206006015442105b92915050565b61034e611251565b6000818152600260205260409020600601544210156103ac5760405162461bcd60e51b8152602060048201526015602482015274185d58dd1a5bdb881b5d5cdd08189948195b991959605a1b60448201526064015b60405180910390fd5b600081815260046020526040902054336001600160a01b039091160361041f5760405162461bcd60e51b815260206004820152602260248201527f68696768657374206269646465722063616e6e6f7420776974686472617720626044820152611a5960f21b60648201526084016103a3565b60008181526003602090815260408083203380855292528220805492905561044790826112aa565b604080518381526020810183905233917f5eec25485ddf1aad4b5c89eda65e6053949901bfb1fe6f4c553e9c208b5bd5f8910160405180910390a25061048d6001600055565b50565b60008181526005602052604090206060906104aa90611300565b6001600160401b038111156104c1576104c161145a565b60405190808252806020026020018201604052801561050657816020015b60408051808201909152600080825260208201528152602001906001900390816104df5790505b50905060005b600083815260056020526040902061052390611300565b8110156105b0576000838152600560205260408120610542908361130a565b6040805180820182526001600160a01b038316808252600088815260036020908152848220928252918252929092205491810191909152845191925090849084908110610591576105916118b6565b60200260200101819052505080806105a8906118e2565b91505061050c565b50919050565b6105be611251565b6105c78161030c565b1561060c5760405162461bcd60e51b815260206004820152601560248201527430bab1ba34b7b71034b99039ba34b6361037b832b760591b60448201526064016103a3565b600081815260026020908152604080832060049092529091205460018201546001600160a01b03918216911633148061064d5750336001600160a01b038216145b6106ac5760405162461bcd60e51b815260206004820152602a60248201527f6f6e6c792073656c6c6572206f722077696e6e65722063616e20636f6d706c656044820152693a329030bab1ba34b7b760b11b60648201526084016103a3565b6001600160a01b038116156107625781546002830154604051632142170760e11b81526001600160a01b03909216916342842e0e916106f191309186916004016118fb565b600060405180830381600087803b15801561070b57600080fd5b505af115801561071f573d6000803e3d6000fd5b50505060008481526003602090815260408083206001600160a01b038681168552925282208054929055600185015491925061075c9116826112aa565b506107d3565b815460018301546002840154604051632142170760e11b81526001600160a01b03938416936342842e0e936107a093309392909116916004016118fb565b600060405180830381600087803b1580156107ba57600080fd5b505af11580156107ce573d6000803e3d6000fd5b505050505b60078201805460ff19166002179055600182015460008481526003602090815260408083206001600160a01b0386811680865291845293829020548251898152938401529392909216917f7a59a6c36c8b7dc5080444722a7a194bf83837c893f984bcea8692e91551fc47910160405180910390a3505061048d6001600055565b61085c611251565b6000818152600260205260409020600501544210156108b75760405162461bcd60e51b8152602060048201526017602482015276185d58dd1a5bdb881a185cc81b9bdd081cdd185c9d1959604a1b60448201526064016103a3565b6108c08161030c565b6109005760405162461bcd60e51b8152602060048201526011602482015270185d58dd1a5bdb881a185cc8195b991959607a1b60448201526064016103a3565b60008181526002602090815260408083206003835281842033855290925282205490919061092f90349061191f565b9050816003015481116109965760405162461bcd60e51b815260206004820152602960248201527f63616e6e6f74206269642062656c6f7720746865206c61746573742062696464604482015268696e6720707269636560b81b60648201526084016103a3565b6000838152600360209081526040808320338452909152812080543492906109bf90849061191f565b9091555050600083815260046020908152604080832080546001600160a01b03191633908117909155600386018590556005909252909120610a009161131d565b610a1e576000838152600560205260409020610a1c903361133f565b505b604080518481526020810183905233917f0bda7f7cf42011b27b057b83f3bf21f963b84eb591478e6b413b18d7872cd37a910160405180910390a2505061048d6001600055565b610a73600180546001019055565b6000610a7e60015490565b905060405180610180016040528083600001516001600160a01b03168152602001336001600160a01b031681526020018360200151815260200183604001518152602001836040015181526020018360600151815260200183608001518152602001600160ff1681526020018360a0015181526020018281526020018360c0015181526020018360e001518152506002600083815260200190815260200160002060008201518160000160006101000a8154816001600160a01b0302191690836001600160a01b0316021790555060208201518160010160006101000a8154816001600160a01b0302191690836001600160a01b0316021790555060408201518160020155606082015181600301556080820151816004015560a0820151816005015560c0820151816006015560e08201518160070160006101000a81548160ff021916908360ff160217905550610100820151816008019081610be291906119b4565b506101208201516009820155610140820151600a820190610c0390826119b4565b50610160820151600b820190610c1990826119b4565b505082516020840151604051632142170760e11b81526001600160a01b0390921692506342842e0e91610c539133913091906004016118fb565b600060405180830381600087803b158015610c6d57600080fd5b505af1158015610c81573d6000803e3d6000fd5b5050506040808401516020808601516060808801516080808a015187518a81529586019690965295840192909252820152918201523391507e09646912aaa7019ad837e57cc5c0613299c8432f5268d4450ab8673fe0fa039060a00160405180910390a25050565b6060610cf460015490565b6001600160401b03811115610d0b57610d0b61145a565b604051908082528060200260200182016040528015610db557816020015b610da260405180610180016040528060006001600160a01b0316815260200160006001600160a01b031681526020016000815260200160008152602001600081526020016000815260200160008152602001600060ff168152602001606081526020016000815260200160608152602001606081525090565b815260200190600190039081610d295790505b50905060005b6001548110156110435760026000610dd483600161191f565b8152602080820192909252604090810160002081516101808101835281546001600160a01b039081168252600183015416938101939093526002810154918301919091526003810154606083015260048101546080830152600581015460a0830152600681015460c0830152600781015460ff1660e083015260088101805461010084019190610e6390611932565b80601f0160208091040260200160405190810160405280929190818152602001828054610e8f90611932565b8015610edc5780601f10610eb157610100808354040283529160200191610edc565b820191906000526020600020905b815481529060010190602001808311610ebf57829003601f168201915b5050505050815260200160098201548152602001600a82018054610eff90611932565b80601f0160208091040260200160405190810160405280929190818152602001828054610f2b90611932565b8015610f785780601f10610f4d57610100808354040283529160200191610f78565b820191906000526020600020905b815481529060010190602001808311610f5b57829003601f168201915b50505050508152602001600b82018054610f9190611932565b80601f0160208091040260200160405190810160405280929190818152602001828054610fbd90611932565b801561100a5780601f10610fdf5761010080835404028352916020019161100a565b820191906000526020600020905b815481529060010190602001808311610fed57829003601f168201915b505050505081525050828281518110611025576110256118b6565b6020026020010181905250808061103b906118e2565b915050610dbb565b5090565b60026020819052600091825260409091208054600182015492820154600383015460048401546005850154600686015460078701546008880180546001600160a01b039889169a909816989697959694959394929360ff90921692916110ac90611932565b80601f01602080910402602001604051908101604052809291908181526020018280546110d890611932565b80156111255780601f106110fa57610100808354040283529160200191611125565b820191906000526020600020905b81548152906001019060200180831161110857829003601f168201915b50505050509080600901549080600a01805461114090611932565b80601f016020809104026020016040519081016040528092919081815260200182805461116c90611932565b80156111b95780601f1061118e576101008083540402835291602001916111b9565b820191906000526020600020905b81548152906001019060200180831161119c57829003601f168201915b50505050509080600b0180546111ce90611932565b80601f01602080910402602001604051908101604052809291908181526020018280546111fa90611932565b80156112475780601f1061121c57610100808354040283529160200191611247565b820191906000526020600020905b81548152906001019060200180831161122a57829003601f168201915b505050505090508c565b6002600054036112a35760405162461bcd60e51b815260206004820152601f60248201527f5265656e7472616e637947756172643a207265656e7472616e742063616c6c0060448201526064016103a3565b6002600055565b600080600080600085875af19050806112fb5760405162461bcd60e51b815260206004820152601360248201527211551217d514905394d1915497d19052531151606a1b60448201526064016103a3565b505050565b6000610340825490565b60006113168383611354565b9392505050565b6001600160a01b03811660009081526001830160205260408120541515611316565b6000611316836001600160a01b03841661137e565b600082600001828154811061136b5761136b6118b6565b9060005260206000200154905092915050565b60008181526001830160205260408120546113c557508154600181810184556000848152602080822090930184905584548482528286019093526040902091909155610340565b506000610340565b6000602082840312156113df57600080fd5b5035919050565b602080825282518282018190526000919060409081850190868401855b8281101561143157815180516001600160a01b03168552860151868501529284019290850190600101611403565b5091979650505050505050565b80356001600160a01b038116811461145557600080fd5b919050565b634e487b7160e01b600052604160045260246000fd5b60405161010081016001600160401b03811182821017156114935761149361145a565b60405290565b60006001600160401b03808411156114b3576114b361145a565b604051601f8501601f19908116603f011681019082821181831017156114db576114db61145a565b816040528093508581528686860111156114f457600080fd5b858560208301376000602087830101525050509392505050565b6000806000806080858703121561152457600080fd5b61152d8561143e565b935061153b6020860161143e565b92506040850135915060608501356001600160401b0381111561155d57600080fd5b8501601f8101871361156e57600080fd5b61157d87823560208401611499565b91505092959194509250565b6000806040838503121561159c57600080fd5b823591506115ac6020840161143e565b90509250929050565b600082601f8301126115c657600080fd5b61131683833560208501611499565b6000602082840312156115e757600080fd5b81356001600160401b03808211156115fe57600080fd5b90830190610100828603121561161357600080fd5b61161b611470565b6116248361143e565b81526020830135602082015260408301356040820152606083013560608201526080830135608082015260a08301358281111561166057600080fd5b61166c878286016115b5565b60a08301525060c08301358281111561168457600080fd5b611690878286016115b5565b60c08301525060e0830135828111156116a857600080fd5b6116b4878286016115b5565b60e08301525095945050505050565b6000815180845260005b818110156116e9576020818501810151868301820152016116cd565b506000602082860101526020601f19601f83011685010191505092915050565b60006020808301818452808551808352604092508286019150828160051b87010184880160005b8381101561181157603f19898403018552815180516001600160a01b0390811685528882015116888501528681015187850152606080820151908501526080808201519085015260a0808201519085015260c0808201519085015260e08082015160ff16908501526101008082015161018082870181905291906117b6838801826116c3565b9250505061012080830151818701525061014080830151868303828801526117de83826116c3565b9250505061016080830151925085820381870152506117fd81836116c3565b968901969450505090860190600101611730565b509098975050505050505050565b600060018060a01b03808f168352808e166020840152508b60408301528a60608301528960808301528860a08301528760c083015260ff871660e08301526101806101008301526118746101808301876116c3565b8561012084015282810361014084015261188e81866116c3565b90508281036101608401526118a381856116c3565b9f9e505050505050505050505050505050565b634e487b7160e01b600052603260045260246000fd5b634e487b7160e01b600052601160045260246000fd5b6000600182016118f4576118f46118cc565b5060010190565b6001600160a01b039384168152919092166020820152604081019190915260600190565b80820180821115610340576103406118cc565b600181811c9082168061194657607f821691505b6020821081036105b057634e487b7160e01b600052602260045260246000fd5b601f8211156112fb57600081815260208120601f850160051c8101602086101561198d5750805b601f850160051c820191505b818110156119ac57828155600101611999565b505050505050565b81516001600160401b038111156119cd576119cd61145a565b6119e1816119db8454611932565b84611966565b602080601f831160018114611a1657600084156119fe5750858301515b600019600386901b1c1916600185901b1785556119ac565b600085815260208120601f198616915b82811015611a4557888601518255948401946001909101908401611a26565b5085821015611a635787850151600019600388901b60f8161c191681555b5050505050600190811b0190555056fea164736f6c6343000812000a",
  "linkReferences": {},
  "deployedLinkReferences": {}
}